:020000040800F2
:10000000600C0024390300088B3B0008EF34000823
:10001000893B00082F050008455200080000000039
:1000200000000000000000000000000095400008F3
:100030009105000800000000013E0008D9400008BA
:100040005303000853030008530300085303000838
:100050005303000853030008530300085303000828
:100060005303000853030008530300085303000818
:100070005303000853030008530300085303000808
:1000800053030008530300085303000853030008F8
:1000900053030008530300085303000853030008E8
:1000A00053030008530300085303000853030008D8
:1000B000530300085303000853030008F1340008F9
:1000C00053030008530300085303000853030008B8
:1000D00053030008215200082D520008395200082D
:1000E00053030008530300080000000053030008F6
:1000F0005303000853030008530300085303000888
:100100005303000853030008530300085303000877
:100110005303000853030008530300086942000812
:100120005303000853030008530300085303000857
:100130005303000853030008530300085303000847
:1001400000000000000000000000000000000000AF
:100150005303000853030008530300085303000827
:100160005303000853030008530300085303000817
:100170005303000853030008530300085303000807
:1001800053030008530300085303000853030008F7
:1001900053030008530300085303000853030008E7
:1001A00053030008530300085303000853030008D7
:1001B00053030008530300085303000853030008C7
:1001C00053030008530300085303000853030008B7
:1001D00053030008530300085303000853030008A7
:1001E0005303000853030008530300085303000897
:1001F0005303000853030008530300085303000887
:100200005303000853030008530300085303000876
:100210005303000853030008530300085303000866
:1002200053030008530300085303000800000000B4
:1002300053030008530300080000000053030008A4
:100240005303000853030008530300085303000836
:100250005303000853030008530300085303000826
:100260005303000853030008530300085303000816
:100270005303000853030008530300080000000064
:100280005303000853030008530300080000000054
:10029000000000005303000800F002F800F03CF8F2
:1002A0000AA090E8000C82448344AAF10107DA45D1
:1002B00001D100F031F8AFF2090EBAE80F0013F0E7
:1002C000010F18BFFB1A43F0010318479C500000B0
:1002D000BC500000103A24BF78C878C1FAD8520741
:1002E00024BF30C830C144BF04680C6070470000B0
:1002F0000023002400250026103A28BF78C1FBD82F
:10030000520728BF30C148BF0B6070471FB505F0CA
:100310000AF81FBD10B510BD00F0D4F81146FFF764
:10032000F5FF04F0E1FF00F0F2F803B4FFF7F2FF8D
:1003300003BC00F0F5F80000094880470948004771
:10034000FEE7FEE7FEE7FEE7FEE7FEE7FEE7FEE785
:10035000FEE7FEE704480549054A064B70470000E2
:100360008D4100089902000860060024600C0024FA
:10037000600800246008002453EA020C00F0698041
:100380002DE9F04B4FF00006002B1FBFB3FA83F5A9
:1003900003FA05F424FA05F65E4012BF1643B2FADA
:1003A00082F502FA05F4C5F120051EBF22FA05FC0C
:1003B00044EA0C04203556EA044C4FEA144418BFB2
:1003C000641C4FF000084FF00009904271EB030CE1
:1003D00039D3002919BFB1FA81F701FA07F6B0FA4B
:1003E00080F700FA07F6C7F120071EBF20FA07FCC6
:1003F00046EA0C062037B6FBF4FCA7EB0507103FD6
:1004000007F01F0BCBF120060CFA0BFB2CFA06F6BB
:1004100044BFB3460026202FA4BF5E464FF0000B1A
:100420005BEA060C08BF4FF0010B19EB0B09ABFBA5
:10043000027C48EB0608C01B06FB02CC0BFB03CC7E
:1004400071EB0C01C1E70B46024641464846BDE848
:10045000F08B13B54FF000004FF00001AFF30080B8
:10046000BDE81C4070474FF0000200B513469446AB
:100470009646203922BFA0E80C50A0E80C50B1F1FC
:100480002001BFF4F7AF090728BFA0E80C5048BF10
:100490000CC05DF804EB890028BF40F8042B08BFAE
:1004A000704748BF20F8022B11F0804F18BF00F8AA
:1004B000012B704770477047704700000048704735
:1004C000FC0500247546FFF7F9FFAE4605006946B6
:1004D000534620F00700854618B020B5FFF73AFFD5
:1004E000BDE820404FF000064FF000074FF0000835
:1004F0004FF0000B21F00701AC46ACE8C009ACE8B6
:10050000C009ACE8C009ACE8C0098D46704710B519
:100510000446AFF300802046BDE81040FFF705BF5A
:1005200001491820ABBEFEE7260002007047FEE737
:100530001549002210B501F1620391F86040E054C2
:1005400091F86000401CC0B281F8600091F8623000
:10055000552B16D10B2816D391F863300B48522B2C
:1005600002D0532B0DD106E04B6EC0F816308B6EC7
:10057000C0F81A3005E04B6EC0F80E308B6EC0F834
:10058000123081F8602010BDB0010024600000240A
:10059000704772B6FEE700002DE9F84F044600F000
:1005A00013FC00903CB194F83500022806D080215D
:1005B00061650020E4E00120BDE8F88FC74DC74E1B
:1005C000C649183520683036DFF81483DFF81493F5
:1005D0008842DFF814A3DFF814B32ED0A8422CD041
:1005E000B0422AD0404528D0484526D0504524D096
:1005F000584522D0BD4A183290421ED0BC4A904283
:100600001BD0BB4A1832904217D0B94A30329042C0
:1006100013D0B74A483290420FD0B54A6032904268
:100620000BD0B34A7832904207D0B14A9032904210
:1006300003D0AF4AA832904209D1026822F01E02CC
:1006400002602068426922F08002426103E0026891
:1006500022F00E02026027688F4238464DD0A84231
:100660004BD0B04249D0404547D0484545D0504591
:1006700043D0584541D09D4A183290423DD09C4AC3
:1006800090423AD09A4A1832904236D0984A303244
:10069000904232D0964A483290422ED0944A6032EC
:1006A00090422AD0924A7832904226D0904A903294
:1006B000904222D08E4AA83290421ED08D4A90425B
:1006C0001BD08C4A1432904217D08A4A283290426A
:1006D00013D0884A3C3290420FD0864A5032904222
:1006E0000BD0844A6432904207D0824A78329042DA
:1006F00003D0804A8C32974204D1206E026822F4E3
:100700008072026075492068884228D0A84226D0AD
:10071000B04224D0404522D0484520D050451ED07C
:1007200058451CD071491831884218D07049884208
:1007300015D06F491831884211D06D493031884247
:100740000DD06B494831884209D0694960318842EF
:1007500005D067497831884201D0654990310168F8
:1007600021F0010101600EE000F02EFB0099401A1B
:10077000052808D9202262650321002084F835105D
:1007800084F8340017E73868C007EDD1534A0121D7
:10079000206890422ED0A8422CD0B0422AD04045AA
:1007A00028D0484526D0504524D0584522D04F4B1C
:1007B000183398421ED04E4B98421BD04C4B1833E6
:1007C000984217D04A4B3033984213D0484B4833A5
:1007D00098420FD0464B603398420BD0444B78334D
:1007E000984207D0424B9033984203D0404BA833F5
:1007F000984208D194F85C703F23A06D07F01F0762
:10080000BB40836007E094F85C30A06D03F01F03E9
:1008100001FA03F34360206890424DD0A8424BD0C8
:10082000B04249D0404547D0484545D0504543D0D7
:10083000584541D02D4A183290423DD02C4A904222
:100840003AD02B4A1832904236D0294A3032904260
:1008500032D0274A483290422ED0254A6032904208
:100860002AD0234A7832904226D0214A90329042B0
:1008700022D01F4AA83290421ED01E4A90421BD05E
:100880001C4A1432904217D01A4A2832904213D090
:10089000184A3C3290420FD0164A503290420BD048
:1008A000144A6432904207D0124A7832904203D000
:1008B000104A8C3290420BD1D4E919024260E06EAA
:1008C00030B1026822F480720260D4E91C024260F6
:1008D000002084F8351084F834006DE610000240E2
:1008E000580002407000024088000240A000024010
:1008F00010040240085402582DE9F05F28B190F826
:100900003510022904D0802141650120BDE8F09F07
:10091000904C904B0168183C18338E4ADFF83C929B
:10092000A1428D4CDFF838E28E4FDFF83CB2DFF8A1
:100930003CA28F4D8F4E31D091422FD099422DD075
:10094000A1422BD0494529D0714527D0B94225D0A5
:10095000DFF810C20CF1180C61451FD0DFF808C297
:10096000ACF1600C614519D0DFF8FCC1ACF1480C6A
:10097000614513D0DFF8F0C1ACF1300C61450DD00A
:10098000DFF8E4C1ACF1180C614507D0594505D03A
:10099000514503D0A94201D0B1422CD1DFF8B4C1F6
:1009A0004FF0040880F83580ACF1180C61451DD07B
:1009B00091421BD0994219D0A14217D0494515D078
:1009C000714513D0B94211D06648183081420DD01C
:1009D00065486038814209D063484838814205D073
:1009E00061483038814201D05F481838086820F0EB
:1009F00001000860ABE0D1F800C02CF00E08DFF871
:100A000054C1C1F80080ACF1180C0168614527D0D1
:100A1000914225D0994223D0A14221D049451FD0EF
:100A200071451DD0B9421BD0DFF838C10CF1180C4C
:100A3000614515D0DFF830C1ACF1600C61450FD0D5
:100A4000DFF824C1ACF1480C614509D0DFF818C1CA
:100A5000ACF1300C614503D0DFF80CC1ACF1180CDF
:100A6000D1F800C02CF0010CC1F800C0DFF8E48020
:100A70004FF0010C0168A8F11808414546D0914299
:100A800044D0994242D0A14240D049453ED0714520
:100A90003CD0B9423AD0334A1832914236D0324A29
:100AA000603A914232D0304A483A91422ED02E4A92
:100AB000303A91422AD02C4A183A914226D05945D0
:100AC00024D0514522D0A94220D0B1421ED02A4A7A
:100AD00091421BD0284A1432914217D0264A28321C
:100AE000914213D0244A3C3291420FD0224A5032D4
:100AF00091420BD0204A6432914207D01E4A78328C
:100B0000914203D01C4A8C32914218D1016E0A687E
:100B100022F480720A6090F85C20816D02F01F025E
:100B20000CFA02F24A60D0E919124A60C16E31B182
:100B30000A6822F480720A60D0E91C124A6000221E
:100B4000016D80F835C080F8342001B1884700205D
:100B5000DCE600002800024058000240700002401D
:100B600088000240A0000240700402408804024055
:100B7000A0040240B8040240085402582DE9F84F7E
:100B800003247D4D00234FF001094FF0B04B4FF08F
:100B90000F0AE9E009FA03F73A4076D00E7906F039
:100BA0000306012E01D0022E18D1D0F808C04FEA5A
:100BB000430ECE6804FA0EF82CEA080C06FA0EF67C
:100BC00046EA0C068660D0F804C00E792CEA070CC1
:100BD000C6F300169E4046EA0C0646600E79F643C0
:100BE000B6070BD0C6684FEA43088F6804FA08FCC2
:100BF00026EA0C0607FA08F73743C7600E7906F0B5
:100C00000306022E12D1DE080F694FEA437C00EB87
:100C10008606B646366A4FEADC6C0AFA0CF807FA22
:100C20000CF726EA08063743CEF820700F790668DD
:100C30004FEA430807F0030704FA08FC07FA08F72D
:100C400026EA0C06374307604E6816F4403F1CD076
:100C50004A4E376847F00207376036689F0706F04C
:100C60000206009623F0030606F1B046B6463F0F93
:100C7000D6F80864DFF808810AFA07FC404526EA3E
:100C80000C0603D14FF0000C41E06CE0DFF8F4C03B
:100C9000604502D14FF0010C39E0DFF8ECC060454F
:100CA00002D14FF0020C32E0DFF8E0C0604502D123
:100CB0004FF0030C2BE0DFF8D8C0604502D14FF0B5
:100CC000040C24E0DFF8CCC0604502D14FF0050CE5
:100CD0001DE0DFF8C4C0604502D14FF0060C16E0FD
:100CE000DFF8B8C0604502D14FF0070C0FE0DFF825
:100CF000B0C0604502D14FF0080C08E0DFF8A4C096
:100D0000604502D14FF0090C01E04FF00A0C0CFADB
:100D100007FC4CEA060CCEF808C44F68DBF800600C
:100D2000FF0226EA020600D516435F46CBF80060B4
:100D3000D1F804C0DBF804605FEA8C2C26EA0206D6
:100D400000D516437E606E684F6826EA0206BF0330
:100D500000D516436E602E684F6826EA0206FF0330
:100D600000D516432E605B1C0A6832FA03F67FF446
:100D700011AFBDE8F88F000080000058F44402581D
:100D8000000002580004025800080258000C0258E3
:100D9000001002580014025800180258001C025893
:100DA00000200258002402580069084000D00120A9
:100DB00070470AB1816170470904FBE70148006888
:100DC000000C70470010005C01488068704700000C
:100DD000000000240268436B91691268002B00D068
:100DE0001847704702488168027811448160704753
:100DF00000000024032010B500F086F800F0F4FF96
:100E00000F4A104914681368C4F3032203F00F0358
:100E10008A5CC95C02F01F0201F01F01D0400A4A3F
:100E200020FA01F11160094908600F2000F010F864
:100E300008B1012010BD00F02BF8002010BD00000B
:100E40001844025858530008100000240C000024D5
:100E500070B50D4D04462878A0B14FF47A71B1FBFE
:100E6000F0F00A490968B1FBF0F001F0FDFA48B969
:100E7000102C07D200222146501E00F025F8002039
:100E80006C6070BD012070BD000000240C000024C7
:100E9000054808B5016841F002010160006800F0F2
:100EA0000200009008BD0000F4440258002809DB4D
:100EB000410900F01F028900012001F1E02190406A
:100EC000C1F80001704700000E4BF0B41B680D46DE
:100ED000C3F30223C3F10706042E00D90426191D0B
:100EE000072901D2002300E0DB1E012404FA06F1E9
:100EF0009C40491E2940641E994014402143F0BC87
:100F000004F0A1B90CED00E0064900F0070210B5AD
:100F10004FF6FF040868044B204040EA02201843C3
:100F2000086010BD0CED00E00000FA05134970B533
:100F30000A68D243520705D5096801F007018142CA
:100F400013D118E00A6822F0070202430A60FFF793
:100F50003BFF0A4D4FF47A760446083D07E000BF98
:100F6000FFF732FF001BB04201D9012070BD286895
:100F7000C0438004F4D4002070BD00000C48025827
:100F800010B500F0EBFE05490968054AC1F30211EE
:100F9000515C01F01F01C84010BD00002044025800
:100FA00058530008494930B5484C0B1D0A681434A1
:100FB00009681D68246802F00303C5F30012C1F339
:100FC0000531C4F3CC04002914FB02F200EE102A10
:100FD000F8EE400A75D03F4A9FED3D1AB7EE000A81
:100FE0006BB1DFED3D1A012B01D0022B64D002EE74
:100FF000101A1168F8EE422A81EEA22A21E0334C41
:10100000283C23689B0612D5344B246801EE901AC5
:101010001168C4F3C104F8EE612AE34001EE903A8E
:10102000C1F30801F8EE611A81EEA22A0BE001EE8D
:10103000901ADFED2B2A00BFF8EE611A116882EEDC
:10104000A12AC1F3080101EE901A1168F8EE611AA5
:1010500040EE811A71EE800A62EE200AC1F3462149
:1010600001EE101AB8EE411A31EE001AC0EE811AE4
:10107000BCEEE11A80ED001A1168C1F3064101EEE1
:10108000101AB8EE411A31EE001AC0EE811ABCEE09
:10109000E11A80ED011A1168C1F3066101EE101A20
:1010A000B8EE411A31EE000A80EE801ABCEEC10A99
:1010B00080ED020A30BD04E001EE901ADFED092A4E
:1010C000BAE70021016041608160F3E728440258DB
:1010D00000000039384402580024744A0090D003BC
:1010E0000024744C20BCBE4B494930B5484C0B1D04
:1010F0000A681C3409681D68246802F00303C5F3FC
:101100000022C1F30551C4F3CC04002914FB02F200
:1011100000EE102AF8EE400A75D03F4A9FED3D1AC6
:10112000B7EE000A6BB1DFED3D1A012B01D0022BA7
:1011300064D002EE101A1168F8EE422A81EEA22A5B
:1011400021E0334C283C23689B0612D5344B24689D
:1011500001EE901A1168C4F3C104F8EE612AE3406D
:1011600001EE903AC1F30801F8EE611A81EEA22A6D
:101170000BE001EE901ADFED2B2A00BFF8EE611AAA
:10118000116882EEA12AC1F3080101EE901A1168DC
:10119000F8EE611A40EE811A71EE800A62EE200AC2
:1011A000C1F3462101EE101AB8EE411A31EE001AD1
:1011B000C0EE811ABCEEE11A80ED001A1168C1F38D
:1011C000064101EE101AB8EE411A31EE001AC0EED7
:1011D000811ABCEEE11A80ED011A1168C1F30661B3
:1011E00001EE101AB8EE411A31EE000A80EE801AB4
:1011F000BCEEC10A80ED020A30BD04E001EE901A97
:10120000DFED092ABAE70021016041608160F3E760
:101210002844025800000039404402580024744A0F
:101220000090D0030024744C20BCBE4B2DE9FC5F21
:10123000044650F8241B002500902E460801FE4F5E
:10124000DFF8F8831DD5606E50B1B0F5801F0CD06B
:10125000B0F5001F0ED0B0F5401F1DD001250FE0E6
:10126000386840F40030386016E00221201D02F09A
:10127000C9FD03E00098022102F054FE05000BD0E6
:101280002E462088C00523D5606D05281ED2DFE8D4
:1012900000F00C11161B1B00626ED8F8001021F430
:1012A00040111143C8F80010EBE7386840F40030F3
:1012B000386009E00021201D02F0A4FD03E0009841
:1012C000002102F02FFE05466DB100E001252E46FB
:1012D0002088800528D5A06D80281ED00CDC90B118
:1012E00040280ED114E0626DD8F8001021F00701FB
:1012F0001143C8F80010EBE7C02813D0B0F5807F89
:1013000010D001250FE0386840F40030386009E063
:101310000021201D02F076FD03E00098002102F07C
:1013200001FE054695B12E462088DFF81093400552
:1013300009F108092CD5D4F8A400B0F5800F20D00D
:101340000DDCA0B1B0F5001F0FD115E0A26DD8F8EB
:10135000001021F4E0711143C8F80010E4E7B0F583
:10136000C00F13D0B0F5000F10D001250FE0386882
:1013700040F40030386009E00021201D02F042FDF9
:1013800003E00098002102F0CDFD054675B12E4620
:10139000208800052DD5D4F8A800B0F1007F21D019
:1013A0000EDCA8B1B0F1807F10D116E0D4F8A420F3
:1013B000D9F8001021F460011143C9F80010E7E7E3
:1013C000B0F1407F13D0B0F1806F10D001250FE055
:1013D000386840F40030386009E00021201D02F038
:1013E00011FD03E00098002102F09CFD05466DB15F
:1013F0002E46206880011FD5A06CD8B110280FD0D0
:10140000202812D0302815D0012514E0D4F8A820C7
:10141000D9F8001021F0E0611143C9F80010E8E7A5
:10142000386840F40030386004E00221201D02F0EA
:10143000E9FC05466DB12E462088C0042BD5E06D31
:10144000B0F5005F20D00DDCA0B1B0F5805F0FD10A
:1014500015E07A48A26C001F016821F030011143A9
:101460000160E9E7B0F5405F13D0B0F5804F10D0D0
:1014700001250FE0386840F40030386009E00021B1
:10148000201D02F0BFFC03E00098002102F04AFD9D
:10149000054685B12E462088800429D5206EB0F5FA
:1014A000403F23D010DC08B3B0F5803F14D0B0F536
:1014B000003F0FD115E0E26DD8F8001021F4E041B3
:1014C0001143C8F80010E6E7B0F5802F0ED0B0F554
:1014D000A02F0BD001250AE00121201D02F092FC73
:1014E00003E00098012102F01DFD05468DB12E4656
:1014F000208840042AD5D4F8AC00B0F1405F23D056
:1015000010DC08B3B0F1805F14D0B0F1005F0FD1F0
:1015100015E0226ED8F8001021F4E0211143C8F83C
:101520000010E5E7B0F1804F0ED0B0F1A04F0BD026
:1015300001250AE00121201D02F064FC03E000986F
:10154000012102F0EFFC05466DB12E462088000413
:101550001FD5E06ED8B1B0F1805F0ED0B0F1005F62
:1015600010D0012514E0D4F8AC20D9F8001021F0F7
:10157000E0411143C9F80010E8E7386840F4003052
:10158000386004E00121201D02F03CFC05466DB1ED
:101590002E462068C0011ED5606CD0B101280ED047
:1015A000022811D0032814D0012513E0E26ED8F8E8
:1015B000001021F040511143C8F80010E9E73868E5
:1015C00040F40030386004E00221201D02F01AFCD3
:1015D000054685B12E462068DFF85CB04002ABF1CD
:1015E0001C0B57D51648016841F480710160FFF764
:1015F000EBFB82460EE01148626C001F016821F08F
:10160000030111430160E6E7FFF7DEFBA0EB0A00F0
:1016100064283DD80A480068C005F5D57DBBDFF8D1
:101620001CA0B4F8B0200AF1200ADAF8001002F485
:10163000407001F4407105E02C44025850440258B7
:1016400000480258814211D0DAF80010DAF8002080
:1016500021F4407142F48032CAF80020DAF8002008
:1016600022F48032CAF80020CAF80010D4F8B00082
:10167000B0F5807F21D1FFF7A7FB019019E008E0CA
:10168000FFF7A2FB0199411A41F28830814210D93B
:1016900003252E462078DFF844A4C0073DD0A06F74
:1016A000182838D026DC80B3082829D0102825D166
:1016B0002CE0DAF800008007E2D5D4F8B010C1F3CE
:1016C0000120032858460DD0016821F47C510160A7
:1016D000B4F8B020DAF80010C2F30B021143CAF8D4
:1016E0000010D7E7FE4A036802EA111223F47C5186
:1016F0001143ECE720280ED028280CD001250BE060
:101700000121201D02F07EFB04E004E0009801218D
:1017100002F008FC05465DB12E46207880071ED5F4
:10172000606F062819D2DFE800F0160C11161616A5
:10173000A26FDAF8001021F038011143CAF8001046
:10174000EBE70121201D02F05DFB03E00098012181
:1017500002F0E8FB054675B100E001252E46207831
:1017600040071FD5D4F89000062819D2DFE800F012
:10177000160C11161616626FDAF8001021F0070128
:101780001143CAF80010EAE70121201D02F03AFBDC
:1017900003E00098012102F0C5FB05469DB100E081
:1017A00001252E46207880062BD5D4F88C00B0F188
:1017B000405F24D011DC10B3B0F1805F15D0B0F1E0
:1017C000005F10D116E0D4F89020D9F8001021F075
:1017D00007011143C9F80010E4E7B0F1804F0ED0C3
:1017E000B0F1A04F0BD001250AE00021201D02F02E
:1017F00009FB03E00098022102F094FB05468DB13D
:101800002E46207840062BD5D4F89800B0F5406FCE
:1018100024D011DC10B3B0F5806F15D0B0F5006F97
:1018200010D116E0D4F88C20DAF8001021F0E04155
:101830001143CAF80010E4E7B0F5805F0ED0B0F5B0
:10184000A05F0BD001250AE00021201D02F0DAFA8A
:1018500003E00098022102F065FB05468DB12E469B
:10186000207800062BD5D4F89C00B0F5C04F24D0CA
:1018700011DC10B3B0F5005F15D0B0F5804F10D17A
:1018800016E0D4F89820D9F8001021F4E051114363
:10189000C9F80010E4E7B0F5004F0ED0B0F5204FC6
:1018A0000BD001250AE00021201D02F0ABFA03E075
:1018B0000098022102F036FB05464DB12E462078F5
:1018C00000071ED5D4F88000B0F5805F0AD00FE085
:1018D000D4F89C20D9F8001021F460411143C9F8D4
:1018E0000010ECE70098022102F01CFB00B1012679
:1018F000D4F88020DAF8001021F440511143CAF8DE
:1019000000102078C00613D5D4F89400B0F5807F7D
:1019100005D10098022102F005FB00B10126D4F8A0
:101920009420D9F8001021F440711143C9F8001037
:101930002068000316D5D4F8A00038B1B0F5803F78
:1019400009D0B0F5003F0BD001250AE00021201D91
:1019500002F058FA03E00098022102F0E3FA05468B
:1019600085B12E462068400322D5D4F88400B0F516
:10197000801F11D0B0F5001F13D0B0F5401F15D057
:10198000012514E0D4F8A020D9F8001021F440314A
:101990001143C9F80010E5E7386840F400303860BA
:1019A00004E00098012102F0BDFA054655B12E462B
:1019B0002068C0031CD5E06C70B1B0F5803F10D03A
:1019C000012514E0D4F88420DAF8001021F4401145
:1019D0001143CAF80010EBE7386840F40030386073
:1019E00004E00221201D02F00DFA0546CDB12E467D
:1019F0002068800005D50098022102F093FA00B11A
:101A00000126206880031BD5E06FB8B1B0F5807F58
:101A100010D0B0F5007F11D0B0F5407F0ED0012579
:101A20000DE02E48E26C0838016821F48031114342
:101A30000160DDE7386840F400303860F5B32E46C9
:101A40002068C00207D5226FD8F8001021F00041AD
:101A50001143C8F800102068C00008D5D4F8B4209D
:101A6000DBF8001021F480411143CBF8001020680E
:101A7000800207D5A26ED8F8001021F080711143C2
:101A8000C8F80010206840000CD5DBF8001021F4E5
:101A90000041CBF80010DBF80010D4F8B820114357
:101AA000CBF800102068002807DA0C48226D0838AF
:101AB000016821F040511143016000E014E020680A
:101AC000000208D5D4F88820DAF8001021F440018B
:101AD0001143CAF8001086B1012003E054440258B3
:101AE000CFFFFF00BDE8FC9FE26FDAF8001021F4A1
:101AF00040711143CAF80010A2E70020EDE7000092
:101B00002DE9F05F04000F467ED0DFF83882D8F868
:101B1000000000F00F00B8420CD2D8F8001021F0FD
:101B20000F013943C8F80010D8F8000000F00F008A
:101B3000B84269D12078844D40070AD520692968C8
:101B400001F07001884204D9296821F07001014335
:101B5000296020787C4E361D00070AD560693168FF
:101B600001F07001884204D9316821F0700101430D
:101B700031602078C0060AD5A069316801F4E061BF
:101B8000884204D9316821F4E06101433160207852
:101B9000DFF8B4B180060BF1080B0CD5E1695846AB
:101BA000DBF8002002F07002914204D9026822F0B2
:101BB00070020A430260207880070AD5E06829682D
:101BC00001F00F01884204D9296821F00F01014377
:101BD00029602078C0073ED05B49A2682868183980
:101BE00020F47060104328606068022818D0032831
:101BF00019D00968012819D0490700294ADADFF805
:101C000048A1AAF1080A00E044E0DAF8002022F036
:101C100007020243CAF80020FFF7D6F8814612E017
:101C200009688903E9E709688901E6E7C905E4E786
:101C3000FFF7CAF8A0EB090141F28830814202D9CE
:101C40000320BDE8F09F6168DAF8000000F038007A
:101C5000B0EBC10FECD1207880070AD5E068296885
:101C600001F00F01884204D2296821F00F010143DD
:101C70002960D8F80010404601F00F01B9420BD995
:101C8000016821F00F0139430160006800F00F0086
:101C9000B84201D00120D4E7207840070AD5206956
:101CA000296801F07001884204D2296821F070018E
:101CB00001432960207800070AD56069316801F086
:101CC0007001884204D2316821F070010143316013
:101CD0002078C0060AD5A069316801F4E061884225
:101CE00004D2316821F4E06101433160207880063C
:101CF0000CD5E1695846DBF8002002F070029142F1
:101D000004D2026822F070020A43026000F06CF80C
:101D10000E492A682B68C2F3032203F00F038A5C82
:101D2000C95C02F01F0201F01F01D040084A20FAEE
:101D300001F111600749086007480068BDE8F05FDD
:101D4000FFF786B800200052184402585853000884
:101D5000100000240C0000240400002430B500F022
:101D600043F80B4A0B490C4B15681468C5F3032262
:101D700004F00F048A5C095D02F01F0201F01F01EC
:101D8000D040064A20FA01F119601060084630BDC3
:101D90001844025858530008100000240C00002476
:101DA00000B5FFF7DBFF05490968054AC1F30211D9
:101DB000515C01F01F01C84000BD00001C440258E6
:101DC0005853000800B5FFF7C9FF05490968054ADF
:101DD000C1F30221515C01F01F01C84000BD0000A9
:101DE0001C44025858530008454970B545480968D5
:101DF000434B103B11F0380208D00111082A03D0E0
:101E0000102A0BD0182A0BD0084670BD1968890615
:101E1000FBD51968C1F3C101C84070BD3A4870BD17
:101E20003749374D18310C1D24350A680968266872
:101E30002D6802F0030406F00102C1F30511C5F399
:101E4000CC0515FB02F200EE102AB8EE400AE9B309
:101E50002F4ADFED2E0AB7EE001A6CB1DFED2D1A16
:101E6000012C01D0022C43D002EE101A1068F8EEBB
:101E7000422A81EEA22A1EE01C68A40611D51B6826
:101E800001EE901A1168C3F3C103F8EE612AD8403D
:101E900001EE900AC1F30800F8EE611A81EEA22A61
:101EA0000BE001EE901ADFED1C2A00BFF8EE611A7C
:101EB000106882EEA12AC0F3080001EE900AF8EE45
:101EC000611A40EE201A31EE810A00E015E022EEA0
:101ED000000A1068C0F34620401C00EE900AF8EE9D
:101EE000600A80EE201ABCEEC10A10EE100A70BD26
:101EF00001EE901ADFED092AD8E7002070BD00003E
:101F0000104402580090D00340787D010000003951
:101F1000304402580024744A0024744C20BCBE4B48
:101F20002DE9F05F04007DD0FF4F2078FE4D18377B
:101F3000DFF8F493103DC00748D0D9F800003968A5
:101F400000F03800102815D0182803D101F0030044
:101F500002280FD06068B0F5803F12D010B1B0F504
:101F6000A02F18D0286820F480302860286820F43A
:101F7000802009E02868800328D560680028D2D036
:101F800024E0286840F480302860606888B1FEF75B
:101F90001BFF064609E0286840F480202860F0E72F
:101FA000FEF712FF801B64286FD828688003F7D5DE
:101FB0000CE0FEF709FF064605E000BFFEF704FF50
:101FC000801B6428F0D828688003F7D4207841F279
:101FD0000308D54E0C3E800769D5D9F80000396852
:101FE00010F038000ED0182801D188070AD0E06818
:101FF00090B3296821F0190101432960FEF7E4FE3E
:10200000824631E02868400702D5E06800288AD07F
:10201000E168286820F0190008432860FEF7D4FE24
:10202000824607E0DFE000BFFEF7CEFEA0EB0A002D
:102030000228B9D828684007F6D500BFFEF7BEFED3
:1020400040451BD82069402812D0316821F47C31EA
:1020500041EA003030602AE018E000BFFEF7B4FE2D
:10206000A0EB0A0002289FD828684007F6D5E5E7CC
:10207000306820F47C3040F40030EBE7207C31689D
:1020800021F0FE4141EA0060E4E70DE1286820F01C
:1020900001002860FEF798FE824605E0FEF794FEF8
:1020A000A0EB0A0002288DD828684007F6D42078D3
:1020B000C0065DD5D9F80000DFF86CB2396800F0D1
:1020C0003800ABF1040B082810D0182803D101F018
:1020D000030001280AD0E0690028286838D040F0C1
:1020E00080002860FEF770FE824623E02868C00565
:1020F00023D5E069802876D11FE0206A202821D0EE
:10210000316821F0F84141EA8060306030E000BF82
:1021100094F82010DBF8002022F07C5242EA0161A2
:10212000CBF8001024E000BFFEF74EFEA0EB0A0043
:10213000022898D82868C005F6D5FEF73FFE40452E
:10214000E6D8DAE7306820F0F84040F08040DCE77D
:1021500020F080002860FEF737FE064605E000BF4D
:10216000FEF732FE801B02289DD82868C005F7D4F0
:102170002078000729D56C486169643000298046C1
:10218000016811D041F001010160FEF71DFE064615
:1021900005E000BFFEF718FE801B0228C9D8D8F85A
:1021A00000008007F6D510E021F001010160FEF784
:1021B0000BFE064605E000BFFEF706FE801B022868
:1021C00072D8D8F800008007F6D42078800623D58E
:1021D000A0690028286810D040F480502860FEF7DD
:1021E000F3FD064605E02CE1FEF7EEFD801B02281C
:1021F0005AD828688004F7D50EE020F48050286073
:10220000FEF7E2FD064604E0FEF7DEFD801B022835
:102210004AD828688004F7D4207840074FD5DFF8E3
:102220000C81D8F8001041F48071C8F80010FEF756
:10223000CBFD064605E000BFFEF7C6FD801B642807
:1022400032D8D8F80000C005F6D5374EA068603601
:1022500001280AD008B1052813D0306820F0010009
:102260003060306820F0040002E0306840F0010087
:102270003060A06841F2883A90B1FEF7A5FD804633
:102280000AE0306840F004003060EEE7FEF79CFDA5
:10229000A0EB0801514507D830688007F6D50EE05D
:1022A000FEF792FD804607E084E000BFFEF78CFD5C
:1022B000A0EB080151457DD830688007F6D4606AEC
:1022C000B0B3DFF86480D9F8001008F12008C1F33A
:1022D000C20103296FD00228286820F0807028608E
:1022E00003D0FEF771FD044680E0FEF76DFD064663
:1022F00005E000BFFEF768FD801B022873D8286840
:102300008001F7D4E26A40F2F331386854F8283F8C
:10231000884340EA021018433860217B4FF4FE0CDA
:1023200022894FF0FE4704E010440258004802584A
:1023300089E0208A4902521E267DA1F5007189B2EA
:10234000401EC2F308021143761E0CEA004001430E
:102350003E4807EA066211433C4AC8F800100832BA
:10236000016821F00101016011684FF6F876236AD7
:10237000B14341EAC30111600168A26921F00C0177
:10238000114301600168E26921F00201114301601B
:10239000016841F480310160016841F4003101605D
:1023A000016841F480210160016841F00101016090
:1023B000286801E017E01DE040F080702860FEF71B
:1023C00003FD044605E000BFFEF7FEFC001B0228EB
:1023D00009D828688001F7D535E000BFFEF7F4FC86
:1023E000001B022802D90320BDE8F09F2868800165
:1023F000F4D428E039680128D8F8000021D0A26A76
:1024000001F0030393421CD1E26AC1F305118A4231
:1024100017D1216BC0F30802491E8A4211D1616BAA
:10242000C0F34622491E91420BD1A16BC0F3064274
:10243000491E914205D1E16BC0F30660491E8142FD
:1024400001D00120D0E70020CEE700002C44025844
:1024500004284FF0E020016903D021F0040101615C
:10246000704741F00401FAE7401EB0F1807F10B5DB
:1024700001D3012010BD4FF0E02460610F216017EF
:1024800002F0E1FE0020A0610721216110BD70472C
:1024900070477047F0B590F83C20012A3BD01F4EA2
:1024A000012480F83C40022280F83D2002681C4D47
:1024B0005368B242D2F808C001D0AA4203D14F6893
:1024C00023F470033B430F6823F070031F435760EE
:1024D0000268B24213D0B2F1804F10D0114B9A4231
:1024E0000DD0114B9A420AD0104B9A4207D0AA4203
:1024F00005D00F4B9A4202D00E4B9A4204D1896804
:102500002CF0800319439160002180F83D4080F851
:102510003C100846F0BD0220F0BD00000000014064
:10252000000401400004004000080040000C00408E
:10253000001800400040014010B5040003D094F89A
:102540003D0010B107E0012010BD002084F83C00E0
:10255000204600F023F8022084F83D002068211D69
:1025600001F088FE012084F8480084F83E0084F8D9
:102570003F0084F8400084F8410084F8420084F869
:10258000430084F8440084F8450084F8460084F849
:10259000470084F83D00002010BD000008B5006829
:1025A0000B49884212D10B48016841F020010160BB
:1025B00000680022114600F0200000903720FEF74E
:1025C00083FCBDE808403720FEF770BC08BD000062
:1025D00000140040E844025890F83D10012901D051
:1025E00001207047174A022180F83D100168CB682E
:1025F00043F00103CB600068904214D0B0F1804FEB
:1026000011D0114988420ED0104988420BD0104990
:10261000884208D00F49884205D00F49884202D02D
:102620000E49884207D181680D4A1140062906D01B
:10263000B1F5803F03D0016841F001010160002045
:102640007047000000000140000400400008004006
:10265000000C004000040140001800400040014010
:10266000070001002DE9F04104000D4603D094F865
:102670003D0018B108E00120BDE8F081002084F899
:102680003C00204600F04CF8244A022084F83D002B
:1026900020688168114081602068211D01F0EAFDF9
:1026A000226840F20336AF6940F60C4C2B684FF2BB
:1026B000F00EA86891680B439169B14341EA072184
:1026C0000843D5E9031720EA0C00D5E9076C20EA96
:1026D0000E00D2F820E03F0140EA062668686D69E6
:1026E000314347EA0C37936023680F4301219F6110
:1026F0002EF0AA0242EA051322681843106284F8F9
:10270000481084F83E1084F83F1084F8441084F890
:10271000451084F83D100020AEE70000F8BFFEFF32
:1027200070B586B0054614216846FDF79CFE2A491F
:1027300000242B680225284A08392848B3F1804F25
:102740001ED0274EB34219D1136843F00203136021
:10275000126802F0020205920A6842F001020A6061
:10276000096801F001010591C0210091CDE90154F2
:10277000CDE90345694600BFFEF700FA06B070BD1B
:10278000136843F001031360126802F0010205921E
:102790000A6842F001020A600A6802F0010205922A
:1027A0000A6842F002020A600968012601F002018B
:1027B000059120210091CDE90154CDE903466946F8
:1027C000FEF7DCF908200090CDE901540548694680
:1027D000CDE90346D0E70000E84402580000025863
:1027E000000400400004025870B504464FF0020097
:1027F00094F83E2094F83F5094F8446094F84530A3
:1028000021B104290DD0012A1AD113E0012A17D1D0
:10281000012E15D184F83E0084F844000021206880
:1028200020E0012D0CD1012B0AD184F83F0084F85F
:10283000450014E0012D03D1012E01D1012B01D05F
:10284000012070BD84F83E0084F83F0084F8440005
:1028500084F8450001222068002101F06DFD206808
:102860000122042101F068FD2068016841F00101A6
:102870000160002070BD704770B5044600680025F7
:102880000169C943890715D4C168C943890711D4AF
:10289000EA1E0261012121772068806980072046B5
:1028A00002D0FFF7E8FF04E000F0D0F8204600F087
:1028B000A5F9257720680169C943490717D4C1687C
:1028C000C943490713D402216FF004020261217742
:1028D0002068806910F4407F204602D0FFF7CBFFCC
:1028E00004E000F0B3F8204600F088F9257720686E
:1028F0000169C943090716D4C168C943090712D43D
:1029000004216FF00802026121772068C069800706
:10291000204602D0FFF7AFFF04E000F097F8204612
:1029200000F06CF9257720680169C943C90617D4FE
:10293000C168C943C90613D408216FF010020261AF
:1029400021772068C06910F4407F204602D0FFF74D
:1029500092FF04E000F07AF8204600F04FF9257766
:1029600020680169C943C90708D1C168C943C907BB
:1029700004D1891E0161204600F0CAF9206801696E
:10298000C943090609D4C168C943090605D46FF0D3
:10299000800101612046FFF77BFD20680169C94382
:1029A000C90509D4C168C943090605D46FF480710B
:1029B00001612046FFF76BFD20680169C9434906A4
:1029C00009D4C168C943490605D46FF040010161CB
:1029D000204600F0C3F920680169C94389060BD479
:1029E000C168C943890607D46FF020010161204600
:1029F000BDE87040FFF74DBD70BD000010B586B05A
:102A0000044614216846FDF72EFD0D4920688842D2
:102A100014D10C48016841F00101016000680021F7
:102A2000032200F00100059002200092CDE901018F
:102A3000CDE9031004486946FEF7A0F806B010BDC2
:102A4000000C0040E044025800000258704770B586
:102A5000044690F83C0000260D4601280BD00120CA
:102A600084F83C000C2A4AD007DC82B1042A20D02A
:102A7000082A06D131E0022070BD102A53D0142A52
:102A800063D00126002084F83C00304670BD2068E9
:102A900001F060FC2068816941F0080181612068D3
:102AA000816921F00401816120682A6981691143EB
:102AB00011E0206801F0A2FC2068816941F4006106
:102AC00081612068816921F48061816120682969C0
:102AD000826942EA01218161D4E7206801F0DAFCD1
:102AE0002068C16941F00801C1612068C16921F015
:102AF0000401C16120682A69C169114311E020689D
:102B000001F014FD2068C16941F40061C1612068D1
:102B1000C16921F48061C16120682969C26942EA02
:102B20000121C161AEE7206801F03CFD2068416DE4
:102B300041F0080141652068416D21F004014165C3
:102B400020682A69416D114311E0206801F064FD9D
:102B50002068416D41F4006141652068416D21F4B8
:102B60008061416520682969426D42EA0121416521
:102B700088E710B5040003D094F83D0010B107E0D9
:102B8000012010BD002084F83C00204600F022F80F
:102B9000022084F83D002068211D01F06BFB01201C
:102BA00084F8480084F83E0084F83F0084F8400030
:102BB00084F8410084F8420084F8430084F844001B
:102BC00084F8450084F8460084F8470084F83D0006
:102BD000002010BD08B500680649884208D10648A3
:102BE000016841F008010160006800F008000090F1
:102BF00008BD0000000C0040E84402587047000087
:102C000030B504464FF0020269B1042912D00829F8
:102C100017D00C291CD0102921D094F8430001288A
:102C200024D0012030BD94F83E000128F9D184F869
:102C30003E201DE094F83F000128F2D184F83F20A7
:102C400016E094F840000128EBD184F840200FE012
:102C500094F841000128E4D184F8412008E094F878
:102C600042000128DDD184F8422001E084F84320AD
:102C70000122206801F060FB1B4B20681B491C4AA5
:102C8000984209D0884207D0904205D0194DA842F9
:102C900002D0194DA84203D1456C45F40045456466
:102CA0002068984212D0B0F1804F0FD0134B984259
:102CB0000CD0134B984209D0124B984206D0884250
:102CC00004D01149884201D0904207D181680F4A4F
:102CD0001140062906D0B1F5803F03D0016841F0CC
:102CE00001010160002030BD0000014000040140EE
:102CF0000040014000440140004801400004004001
:102D000000080040000C00400018004007000100CF
:102D100070B500680E49884219D101F027F801F01A
:102D200091F90C4C206001F0A1F90B4D6060206816
:102D3000E96800F0E3FBA0612969606800F04EFCDF
:102D4000E0610146A069BDE8704001F0A5B970BD21
:102D50000014004018000024FC040024704730B523
:102D600090F88010012918D0012280F880202421B9
:102D7000C0F884100022202450F8641B0B680D68F2
:102D800023F0005325F001050D60026050F8641C2B
:102D90000B6004620277104630BD022030BD7047E0
:102DA000704770B5044690F8800001281DD00122BC
:102DB00084F880202420C4F8840020680568026814
:102DC00022F0010202602068826822F060620A43F9
:102DD0008260204601F05AFC226820210020156004
:102DE000C4F8841084F8800070BD022070BD70B5F6
:102DF000044690F8800001281DD0012284F880202C
:102E00002420C4F8840020680568026822F00102CA
:102E100002602068826822F060420A438260204695
:102E200001F034FC2268202100201560C4F88410D1
:102E300084F8800070BD022070BD704770477047F5
:102E40002DE9F04103680446002540F60F06D869D5
:102E500019689A68304209D186067DD501F02006AE
:102E600002F080573E4377D0216F62E1C64EC74FD4
:102E700016400F4037436FD0C70709D0CF0507D59D
:102E800001271F62D4F88C3043F00103C4F88C3062
:102E900083070AD5D30708D0276802233B62D4F8FA
:102EA0008C3043F00403C4F88C3043070AD5D307B1
:102EB00008D0276804233B62D4F88C3043F0020327
:102EC000C4F88C3003070CD501F02003334308D03D
:102ED000266808233362D4F88C3043F00803C4F822
:102EE0008C3003050BD54B0109D526684FF40063E0
:102EF0003362D4F88C3043F02003C4F88C30D4F81B
:102F00008C30002B3AD0800609D501F0200002F069
:102F10008051084303D0216F09B1204688472168BA
:102F2000D4F88C008968490602D410F0280F27D005
:102F3000204601F06BFC2068806840061BD52068A5
:102F4000083050E8001F21F0400140E80012002A3C
:102F5000F5D1E06F78B100E018E08D490165E06FD0
:102F6000FDF7CAFC002809D0E06F016D00E02046A3
:102F7000BDE8F04108472046FFF761FFBDE8F0815A
:102F80002046FFF75CFFC4F88C50F7E7E76E202679
:102F9000012F7CD1C7067AD5CF0678D510201862CC
:102FA0002068806840067DD5E16F7A4A08689042C3
:102FB00034D0784A1832904230D0764A303290423B
:102FC0002CD0744A4832904228D0724A60329042E3
:102FD00024D0704A7832904220D06E4A903290428B
:102FE0001CD06C4AA832904218D06B4A904215D03F
:102FF000694A1832904211D0674A303290420DD05F
:10300000654A4832904209D0634A6032904205D006
:10301000614A7832904201D05F4A903240680004A1
:10302000000CABD0B4F85C208242A7D9A4F85E00B3
:10303000C869B0F5807F2ED0216851E8000F20F4D8
:10304000807041E80002002AF6D12068083050E87C
:10305000001F21F0010140E80012002AF5D120688C
:10306000083050E8001F21F0400140E80012002A1B
:10307000F5D1C4F88860E566216851E8000F20F0BA
:10308000100041E80002002AF6D1E06F01E03BE0C9
:1030900008E0FDF781FAB4F85C00B4F85E10401A5D
:1030A00081B22DE0B4F85C00B4F85E10B4F85E2094
:1030B000401A81B2002AB4D00029B2D0226852E866
:1030C000000F20F4907042E80003002BF6D1334B40
:1030D000226802F1080252E8000F00EA030042E809
:1030E0000007002FF4D1C4F88860E56625672268E0
:1030F00052E8000F20F0100042E80003002BF6D148
:103100002046FFF74CFE39E7C70209D5570207D51D
:103110004FF4801018622046BDE8F041FFF78EBEE4
:1031200003060AD501F0800302F40002134304D021
:10313000616F00297FF41BAF20E7420611D54A06D4
:103140000FD52046026852E8001F21F0400142E8F6
:103150000013002BF6D1C0F88460456700F0C6F973
:103160000CE7020206D54A0004D52046BDE8F0412E
:10317000FFF763BEC001C6D50029C4DA2046BDE80A
:10318000F041FFF70DBE0000010000102001000417
:10319000F94700081000024010040240FEFFFFEF54
:1031A00010B5040003D0D4F8840010B107E001206A
:1031B00010BD002084F88000204600F027F824206D
:1031C000C4F884002068016821F0010101602046F4
:1031D00001F05EFD0128EBD0A06A10B1204601F09D
:1031E00077FA2068416821F4904141602068816845
:1031F00021F02A0181602068016841F0010101602D
:103200002046BDE8104001F0C7BA00002DE9F047A4
:10321000B6B0044614212FA8FDF725F9BC21684655
:10322000FDF721F9654D0121664A07262068103D0A
:10323000DFF888910227DFF888A1002490422CD182
:103240001E9468460091FDF7F1FF08B1FDF7A1F962
:10325000D9F8001041F01001C9F80010D9F80000A9
:1032600000F010003490286840F0010028602868C1
:103270002FA9CDE9307400F0010034904FF4C06004
:103280002F90CDE932465046FDF778FC002201210F
:103290002520FDF719FE252031E04B4ADFF81C817F
:1032A0009042A8F108082FD1684600971D94FDF7B9
:1032B000BDFF08B1FDF76DF9D8F8000040F400300B
:1032C000C8F80000D8F8000000F4003034902868F6
:1032D00040F00100286028680C21CDE9307400F02E
:1032E00001002F9132942FA9CDE933605046FDF7AC
:1032F00045FC002202212620FDF7E6FD2620FDF7F1
:10330000D5FD36B0BDE8F087304A90422CD16846F2
:1033100000971D94FDF78AFF08B1FDF73AF9D8F838
:10332000000040F48020C8F80000D8F8000000F445
:1033300080203490286840F00200286028684FF40C
:103340004061CDE9307400F002002F9132942FA932
:10335000CDE933601E48FDF711FC002227201146FD
:10336000FDF7B2FD2720CAE71A4A9042C9D11E9440
:1033700068460091FDF75AFF08B1FDF70AF9D9F840
:10338000001041F02001C9F80010D9F8000000F049
:1033900020003490286840F00400286028682FA995
:1033A000CDE9307400F004003490C0202F900A481A
:1033B000CDE93246FDF7E2FBA3E70000F0440258F6
:1033C0000000025800100140004400400048004046
:1033D00000040258001401400008025870B4D0F8EC
:1033E0008830202B20D1E1B1DAB190F88030012B68
:1033F0001AD0036801260D4D002480F88060C46651
:10340000AB420BD05B681B0208D5046854E8003F50
:1034100043F0806344E80035002DF6D170BC01F024
:103420000DBE012070BC70470220FBE7000C005865
:1034300010B50068224A2349904210D10A781E2A0A
:1034400007D248780A2804D08B1CD0540878401C36
:1034500000E0002001F8010B1B4801222BE01B4A71
:1034600090422CD191F84100FDF762F818480122F2
:103470009FED180ADFED181A9FED191AB0F9041024
:10348000164800EE901A1749F8EEE00A60EE800A3E
:1034900060EEA10AC0ED020AB1F9041000EE901A24
:1034A0000849F8EEE00A413120EE800A20EE010AD8
:1034B00080ED030A0C48BDE81040FFF78FBF10BD38
:1034C00000100140B00100247002002400480040B8
:1034D0006E00002400000038000034431005002472
:1034E0000000FA4476000024900300247047FEE7B1
:1034F0000148FDF76FBC0000B0040024081A2D49F4
:1035000000EE100AF8EEC00AC1ED000AB0EEE00AC3
:1035100010EE100AB0F1804F02DA9FED270A1AE090
:1035200091ED080A254A264B20EE200A9FED251A28
:1035300010EE100A81ED020A904203D210EE100A3A
:10354000984206DA10EE100A904204D3B0EE410A17
:1035500001E09FED1D0A1D4A81ED020AD1ED012A0D
:1035600091ED072AD1ED061A70EEE22A184B9FED75
:10357000191A02EE220A30EE210A10EE100A81ED2D
:10358000060AC1ED010A904203D210EE100A9842D9
:1035900006DA10EE100A904204D3B0EE410A01E0C0
:1035A0009FED0D0A81ED060AFDEEC00A10EE900AAD
:1035B000704700002C050024000000000080BBC400
:1035C0000080BB440080BBC40080BB4400007AC5BF
:1035D00000007A4500007AC500007A45081A2D4996
:1035E00000EE100AF8EEC00AC1ED000AB0EEE00AE3
:1035F00010EE100AB0F1804F02DA9FED270A1AE0B0
:1036000091ED080A254A264B20EE200A9FED251A47
:1036100010EE100A81ED020A904203D210EE100A59
:10362000984206DA10EE100A904204D3B0EE410A36
:1036300001E09FED1D0A1D4A81ED020AD1ED012A2C
:1036400091ED072AD1ED061A70EEE22A184B9FED94
:10365000191A02EE220A30EE210A10EE100A81ED4C
:10366000060AC1ED010A904203D210EE100A9842F8
:1036700006DA10EE100A904204D3B0EE410A01E0DF
:103680009FED0D0A81ED060AFDEEC00A10EE900ACC
:103690007047000058050024000000000080BBC4F3
:1036A0000080BB440080BBC40080BB4400007AC5DE
:1036B00000007A4500007AC500007A4510B5064C36
:1036C000012211462046FDF774FB00222046BDE88A
:1036D00010400221FDF76DBB0008025810B5064CE2
:1036E000002201212046FDF764FB01222046BDE8AF
:1036F00010400221FDF75DBB0008025810B5064CD2
:10370000012204212046FDF754FB00222046BDE89B
:1037100010400821FDF74DBB0008025810B5064CBB
:10372000002204212046FDF744FB01222046BDE88B
:1037300010400821FDF73DBB000802582DE9F0417B
:1037400086B014216846FCF78EFE3C48016841F0C3
:1037500004010160016801F004010591016841F074
:1037600080010160016801F080010591016841F06C
:1037700001010160016801F001010591016841F05A
:1037800002010160016801F002010591016841F048
:103790001001016000680022294E0F2100F0100086
:1037A00005903046FDF705FB264F002207213846DD
:1037B000FDF7FFFADFF8908000224FF4F141404618
:1037C000FDF7F7FA0024694601250F200090CDE9A6
:1037D000015430460394FDF7D1F907200090CDE95C
:1037E0000154694638460394FDF7C8F903214FF4A4
:1037F000D140CDE900054046CDE902416946FDF7DB
:10380000BDF9A8026946CDE9000540460294FDF7DE
:10381000B5F902212803CDE90005CDE90251694639
:103820004046FDF7ABF9E8036946CDE900044046A0
:103830000294FDF7A3F906B0BDE8F081E044025818
:1038400000080258000402580010025830B51C4805
:103850008DB0FEF765FF24216846FCF704FE18488A
:103860000024012109948A1E0A948D070B94C0E953
:103870000054C0E902420461032384610093CDE94E
:10388000014103940494CDE90541694607940894E5
:10389000FEF7E8FE08B1FCF77CFE094809A9099487
:1038A0000B94FEF7F7FD08B1FCF773FE0448FEF732
:1038B00093FE03483C21FEF797FF0DB030BD00009A
:1038C0008000002410B58CB024216846FCF7CBFDA5
:1038D000174800244FF6FF72144B099401210A94F3
:1038E0000B94C0E90034C0E9024204618461CDE96F
:1038F0000014CDE902140494CDE90541694607940A
:103900000894FEF7AFFE08B1FCF743FE084809A98A
:1039100009940B94FEF7BEFD08B1FCF73AFE04488B
:103920003C21FEF761FF0CB010BD00000004004018
:10393000CC00002410B58AB0002468461C210794EE
:1039400008940994FCF78FFD1F48042141F2873247
:103950001C4BC0E9024104618461C0E90032FFF7F9
:1039600008F908B1FCF715FE174807A90794099450
:10397000FEF790FD08B1FCF70CFE60206946CDE92A
:1039800000041148002202940494FFF760F808B183
:10399000FCF7FFFD0C4804226946FFF758F808B110
:1039A000FCF7F7FD08480421FFF72AF90648002133
:1039B000FFF726F90448FFF721F80348FFF71EF840
:1039C0000AB010BD000C0040180100243EB5154897
:1039D000002445F6BF52124D032300940194802128
:1039E00002948161C0E90242C0E90053FEF7A4FDE0
:1039F00008B1FCF7CEFD0B48694600940294FEF72F
:103A000049FD08B1FCF7C5FD0648FEF7E5FD0022BB
:103A100037201146FDF758FA3720FDF747FA3EBD2B
:103A200000140040640100241A48002110B5184C0D
:103A30000C224FF4E1330460C0E90131C160C0E9F8
:103A400004128161C161016241628162FFF7A8FBDA
:103A500008B1FCF79EFD0F480021FFF7C8F908B137
:103A6000FCF797FD0B480021FFF79BF908B1FCF725
:103A700090FD0848FFF773F908B1FCF78AFD054986
:103A80000122BDE810400348BF39FFF7A7BC000082
:103A900000100140700200241B48002110B5194C91
:103AA0000C224FF416530460C0E90131C160C0E933
:103AB00004128161C161016241628162FFF770FBA2
:103AC00008B1FCF766FD10480021FFF790F908B136
:103AD000FCF75FFD0C480021FFF763F908B1FCF724
:103AE00058FD0948FFF73BF908B1FCF752FD0648BD
:103AF000FFF78CFBBDE81040044901220248FFF7A4
:103B00006DBC00000044004000030024D1010024EB
:103B10001B48002110B5194C0C224FF4E13304600E
:103B2000C0E90131C160C0E904128161C161016273
:103B300041628162FFF734FB08B1FCF72AFD1048AF
:103B40000021FFF754F908B1FCF723FD0C480021D0
:103B5000FFF727F908B1FCF71CFD0948FFF7FFF84C
:103B600008B1FCF716FD0648FFF750FBBDE8104012
:103B7000044901220248FFF731BC00000048004020
:103B800090030024F1010024FEE7FEE70F4A9FEDB9
:103B90000E0ADFED0F0A9FED0F1A82ED070A02F100
:103BA0002C01DFED0D1AC2ED080A81ED071ADFEDD9
:103BB0000B2A9FED0B3AC1ED081A01F14800B1EE56
:103BC000002A80EC032A7047C1CA213E2C0500243C
:103BD0000AD7233C3D0A17BF6F1283BBCDCCCC3D27
:103BE00000000000044900221046431C0A54D8B2C9
:103BF0000928FAD370470000F10500242DE9F84F99
:103C0000254F8046254C01200022ADF800004FF4DE
:103C100080497A70ADF8000045034FF4004A4FF632
:103C2000FF7630E0BDF8000010EA080F01D0012255
:103C300000E0002249462046FDF7BBF80122294654
:103C40002046FDF7B6F80A2001F034FB0022294691
:103C50002046FDF7AEF80A2001F02CFB0122294690
:103C60002046FDF7A6F851462046FDF79DF820B105
:103C7000BDF80010787808437870BDF8000006EAB7
:103C80004000ADF80000BDF80000FF28CAD9BDE82B
:103C9000F84F102001F00EBBF1050024001002586F
:103CA0002DE9F84F00208DF800004FF480592C4D7D
:103CB000024649462846FDF77CF82A4C2078FFF753
:103CC0009DFF6078FFF79AFF0220641E3BE0012011
:103CD000A080DFF894804FF4004A46034FF6FF7748
:103CE00028E0012231462846FDF763F80A2001F05A
:103CF000E1FA002231462846FDF75BF80A2001F080
:103D0000D9FA012231462846FDF753F85146284694
:103D1000FDF74AF8207048B19DF80010A2889DF880
:103D2000003018F80110114308F80310A08807EAC2
:103D30004000A080A088FF28D3D9102001F0BAFA53
:103D40009DF80000401C8DF800009DF80000092837
:103D5000BDD349462846BDE8F84F0122FDF729B8F2
:103D60000010025839000024F10500242DE9F0412B
:103D7000FFF738FFFFF794FF20490123A1F1150059
:103D8000CA79803AC2700A7AD243803202714A7983
:103D9000803A42708A79D24380328270CC78E24392
:103DA00023EA04044474C2F3C0058574C2F300140A
:103DB000C472C2F340164672C2F380170773C2F38F
:103DC000C01282720A79D1439343C1F30014C473C1
:103DD000C1F340124273C1F380150574C1F3C016DC
:103DE00086738371C1F340040472C1F3800242718F
:103DF000C1F3C001C171BDE8F0810000F1050024EC
:103E0000704700002DE9F047454D044689464FF0C4
:103E1000000A2868C04380070AD0414E283E306817
:103E200020F080603060FCF7CFFF0746B04608E026
:103E30000120BDE8F08700BFFCF7C6FFC01B0228C9
:103E400067D8D8F800000001F6D4206829684FF43C
:103E5000FE0721F47C313E0241EA00302860207ADE
:103E6000A389B4F804C040022D4D2D495B1E227C6D
:103E7000ACF1010C1035091DA0F5007080B2521E86
:103E8000CCF3080C07EA034340EA0C00184306EAA7
:103E90000262104328600868626920F0C000104385
:103EA00008600A68A06922F0200202430A60281D07
:103EB0000A6822F010020A6002684FF6F873E4699B
:103EC0009A4342EAC40202600868B9F1000F40F068
:103ED00010020A6011D00868B9F1010F11D040F446
:103EE00000100860D8F80000444640F08060C8F830
:103EF0000000FCF769FF05460DE0086840F400206B
:103F0000EFE740F48010ECE7FCF75EFF401B02286F
:103F100001D903208DE720680001F5D5504688E7D8
:103F2000284402582DE9F047454D044689464FF094
:103F3000000A2868C04380070AD0414E283E3068F6
:103F400020F080503060FCF73FFF0746B04608E0A5
:103F50000120BDE8F08700BFFCF736FFC01B022838
:103F600067D8D8F800008000F6D4208829684FF47C
:103F7000FE0721F07C713E0241EA00502860207A61
:103F8000A389B4F804C040022D4D2D495B1E227C4C
:103F9000ACF1010C1835091DA0F5007080B2521E5D
:103FA000CCF3080C07EA034340EA0C00184306EA86
:103FB0000262104328600868626920F44060104380
:103FC00008600A68A06922F4007202430A60281D92
:103FD0000A6822F480720A6002684FF6F873E46996
:103FE0009A4342EAC40202600868B9F1000F40F443
:103FF00080720A6011D00868B9F1010F11D040F049
:1040000080700860D8F80000444640F08050C8F83E
:104010000000FCF7D9FE05460DE0086840F480007A
:10402000EFE740F40000ECE7FCF7CEFE401B02286F
:1040300001D903208DE720688000F5D5504688E738
:1040400028440258074810B5074902680C69506AAD
:10405000002300B21CB18C6804448C6000E08B60CB
:10406000536210BD8000002418000024074810B5DA
:10407000074902684C69506A002300B21CB1CC6841
:104080000444CC6000E0CB60536210BDCC0000243F
:10409000180000247047000010B50C460C49002899
:1040A00004DC40420860FFF709FB02E00860FFF70C
:1040B00015FB0848002C05DC61420160BDE810409A
:1040C000FFF71CBB0460BDE81040FFF727BB0000F2
:1040D000340C0040380C0040FCF784BE30B59DB075
:1040E0004C216846FCF7BFF9202113A8FCF7BBF967
:1040F0000220FCF71BFF23490A68234822F0010233
:104100000A600968016821F4404141F400410160FE
:104110000168002401F440411B9101688904FCD529
:104120000DF1280C0220099019234FF4F0758CE84A
:1041300029000D90C2030E900121CDE90F04CDE9B5
:104140000012684611941294FDF7EAFE08B172B6A7
:10415000FEE70DF14C0C3F20032108228CE81300F0
:10416000D5011A9440230221CDE91624CDE9183552
:1041700013A8FDF7C5FC002801D072B6FEE71DB0FC
:1041800030BD00002C040058184802582C48F0B5E7
:104190002C4A016841F470010160106800F00F00C2
:1041A000072804D2106820F00F00C01D10602649B7
:1041B0000020254C10340B68244D43F001030B60A4
:1041C00020600B682B400B60136803F00F03072B74
:1041D00004D9136823F00F03DB1D13601A4C1C4A2B
:1041E00018341C4B261D371D2060174C1A4D2834DF
:1041F0003060261D3860371D23603B1D35601C1D57
:104200003A60251D2E1D1860331D22602860326023
:1042100018600A680C4B114C22F4802260330A604B
:10422000186020686FF30F00B0F1005F03D20C49F3
:104230000120C1F8080143F2D2000A490860F0BD2C
:1042400088ED00E000200052004402587FEDF6EABD
:1042500080020101000202020000FF010010005C68
:1042600000800051004000520148FEF705BB0000ED
:10427000640100242DE9F047274B4FF0804A274D79
:1042800002689842264E274F274C09D0504507D048
:10429000A84205D0B04203D0B84201D0A04205D117
:1042A000D1F804C022F070024CEA0202DFF87CC0B0
:1042B000DFF87C809842DFF87C900FD050450DD01D
:1042C000A8420BD0B04209D0B84207D0A04205D0D6
:1042D000604503D0404501D0484503D1CD6822F464
:1042E00040722A434D6922F080022A4302609842BC
:1042F0008A68C2620A68826207D0A04205D060451F
:1043000003D0404501D0484501D10969016301212D
:104310004161BDE8F087000000000140000400405A
:1043200000080040000C0040000401400040014033
:10433000004401400048014010B5046A012301F027
:104340001F018B409C4304628A40016A1143016251
:1043500010BD00002DE9F04F026ADFF88880DFF819
:10436000889022F00102DFF884A0DFF884B0214FAA
:104370000262DFF884C0066A4268836926F002069A
:104380000D68B8428C6803EA0C0323F0030344EA87
:10439000060445EA030507D0404505D0484503D04B
:1043A000504501D0584505D1CB6824F0080423437B
:1043B00023F00404B84207D0404505D0484503D057
:1043C000504501D0584505D122F44076D1E9053257
:1043D00033431A4342608561496841630462BDE822
:1043E000F08F000000040140004001400044014003
:1043F00000480140000001408FFFFEFFF0B5026A57
:104400001E4E1F4C22F01002DFF878E00262056AAF
:104410004368826925F02005D1F808C0A0420F68E2
:1044200002EA060222F4407245EA0C1542EA07222B
:1044300001D0704506D1CE6825F0800545EA061505
:1044400025F04005A0420AD0704508D00E4CA0428D
:1044500005D00E4CA04202D00D4CA04207D1D1E9AC
:10446000054623F4406343EA840343EA860343603A
:104470008261496881630562F0BD0000FF8FFFFE25
:1044800000000140000401400040014000440140A0
:1044900000480140F0B5026A1E4F1F4E22F48072A0
:1044A000DFF878E00262056A4368C26925F40075A6
:1044B000D1F808C0B0420C6802EA070222F00302F9
:1044C00045EA0C2544EA020401D0704506D1CF68C4
:1044D00025F4006242EA072222F48065B0420AD045
:1044E000704508D00E4A904205D00E4A904202D044
:1044F0000D4A904207D123F44052D1E9053642EAF1
:10450000031242EA06134360C4614968C16305624D
:10451000F0BD00008FFFFEFF0000014000040140DD
:10452000004001400044014000480140F0B5026AEB
:10453000174B164F22F4805298420262046A426876
:10454000C36924F400548E680D6803EA070323F45A
:10455000407344EA063443EA05230BD00D4DA842CC
:1045600008D00D4DA84205D00C4DA84202D00C4DEC
:10457000A84204D14D6922F4804242EA8512426089
:10458000C361496801640462F0BD0000FF8FFFFE53
:10459000000001400004014000400140004401408F
:1045A00000480140F0B5026ADFF854C022F48032BE
:1045B0000262056A4268446D25F400350E89604543
:1045C000104F0B6804EA070445EA064543EA040372
:1045D0000BD00D4CA04208D00C4CA04205D00C4C86
:1045E000A04202D00B4CA04204D14C6922F480328C
:1045F00042EA042242604365496881650562F0BD74
:10460000000001408FFFFEFF000401400040014018
:104610000044014000480140F0B5026ADFF854C090
:1046200022F480120262046A4268436D24F400148A
:104630000E896045104F0D6803EA070344EA0654EB
:1046400043EA05230BD00D4DA84208D00C4DA842DB
:1046500005D00C4DA84202D00B4DA84204D14D69A3
:1046600022F4802242EA8522426043654968C1659E
:104670000462F0BD00000140FF8FFFFE0004014016
:1046800000400140004401400048014030B5416E07
:10469000B9B101680D4B03F108048A688968C2F357
:1046A0004262490F5D5C615C2D01B5FBF1F1A0F840
:1046B0006A10995CA25C0901B1FBF2F1A0F86810E4
:1046C00030BD0121A0F86A10F8E700004853000847
:1046D00090F82810C90706D00168C36A4A6822F416
:1046E00000321A434A6090F82810890706D50168FD
:1046F000036B4A6822F480321A434A6090F828100B
:10470000490706D50168436B4A6822F480221A43A0
:104710004A6090F82810090706D50168836B4A683B
:1047200022F400421A434A6090F82810C90606D5C0
:104730000168C36B8A6822F480521A438A6090F839
:104740002810890606D50168036C8A6822F4005295
:104750001A438A6090F82810490611D50168436C05
:104760004A6822F480121A434A60416CB1F5801FF6
:1047700006D10168836C4A6822F4C0021A434A6079
:1047800090F82810090606D50168C26C486820F424
:104790000020104348607047F8B500260446C0F872
:1047A0008C60FCF711FB054620686FF07E470068BF
:1047B000000708D500222B464FF400112046009731
:1047C00000F0C8FC60B92068006840070AD50022E4
:1047D0002B464FF480012046009700F0BBFC08B147
:1047E0000320F8BD2020C4F88400C4F88800E666E1
:1047F000002084F88060F8BD10B5806B0021A0F81F
:104800005E10A0F85610FEF71AFB10BD10B5026836
:1048100052E8001F21F4907142E80013002BF6D1FA
:104820000E4B0268083252E8001F194042E800149B
:10483000002CF6D1C16E012908D1026852E8001F90
:1048400021F0100142E80013002BF6D100212022B4
:10485000C0F88820C166016710BD0000FEFFFFEFB1
:1048600010B5D0F88810B0F860202229016804D073
:10487000886940F00800886110BD496A836D114065
:104880001980816D891C8165B0F85E10491EA0F801
:104890005E10B0F85E100029EED1026852E8001FE9
:1048A00021F4907142E80013002BF6D10168083121
:1048B00051E8002F22F0010241E80023002BF5D13E
:1048C0002022C0F888200021C26E0167012A02D090
:1048D000FEF7AEFD10BDC166026852E8001F21F070
:1048E000100142E80013002BF6D10168CA69D243D7
:1048F000D20601D410220A62B0F85C10FEF74FFA1B
:1049000010BD00002DE9F04704460068C569D0F8E5
:1049100000A0D0F80880D4F88810B4F8606022298C
:1049200005D0816941F008018161BDE8F087B4F8E4
:1049300068704FF0000963E02068A16D406A304064
:104940000880A06D801CA065B4F85E00401EA4F82D
:104950005E002068C569690730D0E9070AD05FEAC0
:10496000CA5107D501210162D4F88C0040F0010042
:10497000C4F88C00A8070BD55FEAC87008D021687E
:1049800002200862D4F88C0040F00400C4F88C00C7
:1049900068070BD55FEAC87008D021680420086258
:1049A000D4F88C0040F00200C4F88C00D4F88C00DD
:1049B00020B12046FEF743FAC4F88C90B4F85E00AC
:1049C000F0B9216851E8000F20F4807041E800023E
:1049D000002AF6D1264A2068083050E8001F11400E
:1049E00040E80013002BF6D120214846C4F8881077
:1049F000E16EC4F87090012923D02046FEF718FD1F
:104A00000FB1A80698D4B4F85E0000288DD0B4F891
:104A10006810814289D92068083050E8001F21F0D1
:104A2000805140E80012002AF5D112482067216821
:104A300051E8000F40F0200041E80002002AF6D1C2
:104A400073E7E066216851E8000F20F0100041E8AC
:104A50000002002AF6D12068C169C943C90601D401
:104A600010210162B4F85C102046FEF798F9C7E700
:104A7000FEFFFFEF6148000810B5D0F88810B0F8CD
:104A800060202229016804D0886940F0080088610C
:104A900010BD496A836D11401970816D491C816593
:104AA000B0F85E10491EA0F85E10B0F85E10002944
:104AB000EED1026852E8001F21F4907142E8001321
:104AC000002BF6D10168083151E8002F22F00102D5
:104AD00041E80023002BF5D12022C0F888200021D6
:104AE000C26E0167012A02D0FEF7A2FC10BDC166AA
:104AF000026852E8001F21F0100142E80013002B69
:104B0000F6D10168CA69D243D20601D410220A62E2
:104B1000B0F85C10FEF743F910BD00002DE9F04736
:104B200004460068C569D0F800A0D0F80880D4F821
:104B30008810B4F86060222905D0816941F008012D
:104B40008161BDE8F087B4F868704FF0000963E058
:104B50002068A16D406A30400870A06D401CA065BF
:104B6000B4F85E00401EA4F85E002068C5696907BD
:104B700030D0E9070AD05FEACA5107D501210162A6
:104B8000D4F88C0040F00100C4F88C00A8070BD5C5
:104B90005FEAC87008D0216802200862D4F88C004F
:104BA00040F00400C4F88C0068070BD55FEAC870B9
:104BB00008D0216804200862D4F88C0040F002007C
:104BC000C4F88C00D4F88C0020B12046FEF737F9E9
:104BD000C4F88C90B4F85E00F0B9216851E8000F79
:104BE00020F4807041E80002002AF6D1264A2068AD
:104BF000083050E8001F114040E80013002BF6D1A8
:104C000020214846C4F88810E16EC4F8709001294C
:104C100023D02046FEF70CFC0FB1A80698D4B4F8B8
:104C20005E0000288DD0B4F86810814289D92068D0
:104C3000083050E8001F21F0805140E80012002A9F
:104C4000F5D112482067216851E8000F40F020009C
:104C500041E80002002AF6D173E7E066216851E8D6
:104C6000000F20F0100041E80002002AF6D1206871
:104C7000C169C943C90601D410210162B4F85C10AE
:104C80002046FEF78CF8C7E7FEFFFFEF794A0008E1
:104C90002DE9F04304468068D84E87B0D84B216890
:104CA000D4E90427D4F81CC010430A68002547EA59
:104CB0000C073843324002430A602068E2684168CA
:104CC00021F44051114341602268A1699A4201D008
:104CD000206A01439768DFF82CC3CB4ECB4807EA24
:104CE0000C070F4397602168676ACA6A22F00F02B7
:104CF0003A43CA622268B2420ED1006800F038001E
:104D0000182873D047DCB8B3082879D010286FD1A1
:104D100078E028287ED17BE0BD498A4209D100682D
:104D200000F00700062875D2DFE800F0546A6C6EC8
:104D30007072B8498A4209D1006800F0070006285D
:104D400068D2DFE800F0475D5F616365B2498A427F
:104D500009D1006800F0070006285BD2DFE800F008
:104D60003A5052545658AD498A420BD1006800F06F
:104D7000070006284ED200E010E0DFE800F02B41EB
:104D800043454749A6498A420AD1006800F03800E5
:104D9000182839D0B7DD2028BBD13CE001203AE00B
:104DA000A0498A4209D1006800F00700062831D2E4
:104DB000DFE800F01026282A2C2E9B498A420BD1CE
:104DC000006800F00700062824D2DFE800F003198D
:104DD0001B1D1F2100201EE09A421BD18B48001D85
:104DE000006800F00700062814D202E00CE007E09B
:104DF00010E0DFE800F0030507090B0D02200AE0D0
:104E0000042008E0082006E0102004E0202002E052
:104E1000402000E080208549DFF814829A42854ACC
:104E20004FF400434FEA21174FF000064ED11028EF
:104E30001AD006DC022809D004280BD008287CD11F
:104E40000DE020283ED0402877D13DE0FCF798F8CF
:104E5000014610E06846FCF7A5F801990BE003A8AD
:104E6000FCF742F9049906E01068800605D5106841
:104E7000C0F3C100C140002970D0606A676838F88B
:104E8000102007EB4703B1FBF2F0834255D8B0EB9B
:104E9000073F52D8002308461946FBF76DFA024631
:104EA0007808130E120243EA012110183A467141A4
:104EB0000023FBF761FA604AA0F5407191423CD8AB
:104EC00021688FE03946D8E71946D6E7D4F81CC0E8
:104ED0004FF6EF799C4546D1082819D005DC58B12A
:104EE00001280CD0042875D10DE0102815D02028F9
:104EF00035D040286ED134E0FCF752FF01E0FCF7DA
:104F000061FF014610E06846FCF74CF801990BE0A0
:104F100003A8FCF7E9F8049906E01068800604D5B8
:104F20001068C0F3C100C140C1B1636A606838F85D
:104F30001330B1FBF3F1490000E04BE001EB50010D
:104F4000B1FBF0F0A0F11001494543D84FF6F073E2
:104F50002168C0F342021840104343E043E0394661
:104F6000E3E71946E1E7082819D005DC58B1012824
:104F70000CD004282ED10DE0102815D020282BD0DD
:104F8000402827D12AE0FCF70BFF01E0FCF71AFFCD
:104F9000014610E06846FCF705F801990BE003A80C
:104FA000FCF7A2F8049906E01068800604D51068A2
:104FB000C0F3C100C140B1B1636A606838F8133012
:104FC000B1FBF3F101EB5001B1FBF0F0A0F11001E6
:104FD000494505D9012506E03946EDE71946EBE7D5
:104FE000216880B2C8600120A4F86A00A4F86800B3
:104FF00028462667666707B0BDE8F083F369FFCFF0
:10500000000C0058FFF4FF110010014054440258F6
:105010000044004000480040004C00400050004068
:105020000014014000780040007C00400090D00354
:105030003053000800440258FFFC0F0070B584682C
:10504000002381654FF48055A0F85C20AC42A0F8A5
:105050005E204FF0FF01036704D1046904BB40F2F6
:10506000FF111DE04FF07F06C4B1B4F1805F1AD08C
:10507000A0F860302221C0F88C30C0F88810016898
:10508000083151E8004F44F0010441E80046002E89
:10509000F5D1416EB1F1005F0CD030E0046934B954
:1050A000A0F86010E6E7016909B13F21F8E7A0F830
:1050B0006060DFE7B0F86810914220D88168A942AB
:1050C00001D10169C9B11F490167016980F88030C8
:1050D00041B1026852E8001F41F4807142E80013B8
:1050E000002BF6D10168083151E8002F42F08052C0
:1050F00041E80023002BF5D121E01349E4E7816862
:10510000A94201D1016979B110490167016980F8AB
:10511000803059B1016851E8002F42F4907241E8A3
:105120000023002BF6D10AE00949EEE7016851E8B7
:10513000002F42F0200241E80023002BF6D100208E
:1051400070BD00001D4B000805490008794A0008A1
:10515000614800082DE9F0479A4617460E46044676
:10516000089D4FF000094FF020084CE0681C4AD021
:10517000FBF72AFEA0EB0A00A8422AD84DB320680C
:10518000016849073FD5C069C04300053BD4216889
:105190004FF400600862216851E8000F20F4D070DD
:1051A00041E80002002AF6D12068083050E8001FCC
:1051B00021F0010140E80012002AF5D1C4F88480F2
:1051C00084F88090C4F88880C4F88C800320BDE8FF
:1051D000F087206850E8001F21F4D07140E80012E9
:1051E000002AF6D12068083050E8001F21F00101A4
:1051F00040E80012002AF5D1C4F8848084F8809039
:10520000C4F88880E2E72068C06936EA000004D06C
:105210000020B842AAD00020D9E70120F9E7000019
:105220000148FDF70DBE0000700200240148FDF7A3
:1052300007BE0000000300240148FDF701BE000086
:1052400090030024FEE7090700284FEA116104DB00
:1052500000F1E02080F80014704700F00F0000F12A
:10526000E02080F8141D704710B504460420FDF7B7
:10527000EFF80148046010BD140000241E21B0FBAB
:10528000F1F270B5B0FBF1F547F2305601FB1204B4
:1052900003E0304600F00EF86D1E002DF9D1002C11
:1052A00006D04FF47A706043BDE8704000F002B859
:1052B00070BD00000B4B00224FF0E0211B685843EB
:1052C00048618A61086940F0010008610869C30704
:1052D00001D0C003FAD5086920F0010008618A6195
:1052E000704700001400002410B5FBF783FDF02088
:1052F000FFF7BAFFFEF7F2FEFEF720FAFEF7A6FA76
:10530000FEF7E0FAFEF716FBFEF760FBFEF7C4FBC4
:10531000FEF78AFBFEF7FCFBFEF738FC3C20FFF7AC
:10532000ADFF002010BD4FF04070E1EE100A704755
:10533000010002000400060008000A000C00100032
:10534000200040008000000101010103070100006E
:105350000804020408010101000000000102030426
:10536000010203040607080988530008000000240E
:1053700080000000D40200080854000880000024C7
:10538000E00B0000F0020008010000001000000027
:10539000000000000090D0030090D0030000000047
:1053A00000000000000000000000000000000000FD
:1053B00000000000010000000000000000000000EC
:1053C000000142000100000001000200030004008F
:1053D000050006000700080009000A000B000C0089
:1053E0000D000E000F00100000000000FFAA760064
:1053F00000FFAA48010000000000000000000000BB
:085400000000000000000000A4
:040000050800029954
:00000001FF
