:020000040800F2
:100000000000082431180008C50F0008C70F0008B9
:10001000C90F0008CB0F0008CD0F0008000000003A
:10002000000000000000000000000000CF0F0008EA
:10003000D10F000800000000D30F0008D50F000802
:10004000811800088118000881180008811800082C
:10005000811800088118000881180008811800081C
:10006000811800088118000881180008811800080C
:1000700081180008811800088118000881180008FC
:1000800081180008811800088118000881180008EC
:1000900081180008811800088118000881180008DC
:1000A00081180008811800088118000881180008CC
:1000B000811800088118000881180008DD0F000869
:1000C00081180008811800088118000881180008AC
:1000D00081180008ED0F0008FD0F00080D10000842
:1000E000811800088118000800000000811800082D
:1000F000811800088118000881180008811800087C
:10010000811800088118000881180008811800086B
:100110008118000881180008811800081D100008C7
:10012000811800088118000881180008811800084B
:10013000811800088118000881180008811800083B
:1001400000000000000000000000000000000000AF
:10015000811800088118000881180008811800081B
:10016000811800088118000881180008811800080B
:1001700081180008811800088118000881180008FB
:1001800081180008811800088118000881180008EB
:1001900081180008811800088118000881180008DB
:1001A00081180008811800088118000881180008CB
:1001B00081180008811800088118000881180008BB
:1001C00081180008811800088118000881180008AB
:1001D000811800088118000881180008811800089B
:1001E000811800088118000881180008811800088B
:1001F000811800088118000881180008811800087B
:10020000811800088118000881180008811800086A
:10021000811800088118000881180008811800085A
:1002200081180008811800088118000800000000EB
:1002300081180008811800080000000081180008DB
:10024000811800088118000881180008811800082A
:10025000811800088118000881180008811800081A
:10026000811800088118000881180008811800080A
:10027000811800088118000881180008000000009B
:10028000811800088118000881180008000000008B
:080290000000000081180008C5
:1002980010B5054C237833B9044B13B10448AFF3B8
:1002A80000800123237010BD6404002400000000B6
:1002B8001C67000808B5034B1BB103490348AFF39B
:1002C800008008BD00000000680400241C670008C6
:1002D80080F0004002E000BF81F0004142001FBFF3
:1002E8005FEA410392EA030F7FEA226C7FEA236CFC
:1002F8006AD04FEA1262D2EB1363C1BFD2184140F1
:1003080048404140B8BF5B42192B88BF704710F086
:10031800004F40F4000020F07F4018BF404211F029
:10032800004F41F4000121F07F4118BF494292EA91
:10033800030F3FD0A2F1010241FA03FC10EB0C00BD
:10034800C3F1200301FA03F100F0004302D549424A
:1003580060EB4000B0F5000F13D3B0F1807F06D3F7
:1003680040084FEA310102F10102FE2A51D2B1F1EF
:10037800004F40EBC25008BF20F0010040EA0300E4
:100388007047490040EB0000013A28BFB0F5000F64
:10039800EDD2B0FA80FCACF1080CB2EB0C0200FA1A
:1003A8000CF0AABF00EBC25052421843BCBFD04069
:1003B8001843704792F0000F81F4000106BF80F4E3
:1003C80000000132013BB5E74FEA41037FEA226CA6
:1003D80018BF7FEA236C21D092EA030F04D092F071
:1003E800000F08BF0846704790EA010F1CBF0020A5
:1003F800704712F07F4F04D1400028BF40F0004002
:10040800704712F100723CBF00F50000704700F021
:10041800004343F0FE4040F4000070477FEA226248
:1004280016BF08467FEA23630146420206BF5FEA19
:10043800412390EA010F40F4800070474FF0000319
:1004480004E000BF10F0004348BF40425FEA000CE0
:1004580008BF704743F0964301464FF000001CE088
:1004680050EA010208BF70474FF000030AE000BFDE
:1004780050EA010208BF704711F0004302D540421C
:1004880061EB41015FEA010C02BF8446014600208E
:1004980043F0B64308BFA3F18053A3F50003BCFAA9
:1004A8008CF2083AA3EBC25310DB01FA02FC634456
:1004B80000FA02FCC2F12002BCF1004F20FA02F25D
:1004C80043EB020008BF20F00100704702F1200250
:1004D80001FA02FCC2F1200250EA4C0021FA02F2B1
:1004E80043EB020008BF20EADC7070474FF0FF0CB6
:1004F8001CEAD0521EBF1CEAD15392EA0C0F93EAB1
:100508000C0F6FD01A4480EA010C400218BF5FEA52
:1005180041211ED04FF0006343EA501043EA5111C5
:10052800A0FB01310CF00040B1F5000F3EBF4900BF
:1005380041EAD3715B0040EA010062F17F02FD2AC3
:100548001DD8B3F1004F40EBC25008BF20F00100A6
:10055800704790F0000F0CF0004C08BF49024CEABD
:10056800502040EA51207F3AC2BFD2F1FF0340EA4F
:10057800C250704740F400004FF00003013A5DDCC0
:1005880012F1190FDCBF00F000407047C2F1000201
:10059800410021FA02F1C2F1200200FA02FC5FEAEE
:1005A800310040F1000053EA4C0308BF20EADC7038
:1005B800704792F0000F00F0004C02BF400010F4AA
:1005C800000F013AF9D040EA0C0093F0000F01F057
:1005D800004C02BF490011F4000F013BF9D041EA79
:1005E8000C018FE70CEAD15392EA0C0F18BF93EA7B
:1005F8000C0F0AD030F0004C18BF31F0004CD8D1A5
:1006080080EA010000F00040704790F0000F17BF2B
:1006180090F0004F084691F0000F91F0004F14D071
:1006280092EA0C0F01D142020FD193EA0C0F03D1C9
:100638004B0218BF084608D180EA010000F00040CC
:1006480040F0FE4040F40000704740F0FE4040F4A7
:10065800400070474FF0FF0C1CEAD0521EBF1CEA46
:10066800D15392EA0C0F93EA0C0F69D0A2EB030264
:1006780080EA010C49024FEA402037D04FF08053FE
:1006880043EA111143EA10130CF000408B4238BFC3
:100698005B0042F17D024FF4000C8B4224BF5B1AD1
:1006A80040EA0C00B3EB510F24BFA3EB510340EA1F
:1006B8005C00B3EB910F24BFA3EB910340EA9C00CD
:1006C800B3EBD10F24BFA3EBD10340EADC001B013D
:1006D80018BF5FEA1C1CE0D1FD2A3FF650AF8B42E1
:1006E80040EBC25008BF20F0010070470CF0004CEE
:1006F8004CEA50207F32C2BFD2F1FF0340EAC25019
:10070800704740F400004FF00003013A37E792F0D9
:10071800000F00F0004C02BF400010F4000F013A37
:10072800F9D040EA0C0093F0000F01F0004C02BF32
:10073800490011F4000F013BF9D041EA0C0195E79B
:100748000CEAD15392EA0C0F08D142027FF47DAF34
:1007580093EA0C0F7FF470AF084676E793EA0C0F24
:1007680004D14B023FF44CAF08466EE730F0004C22
:1007780018BF31F0004CCAD130F000427FF45CAFB2
:1007880031F000437FF43CAF5FE700BF4FF0FF3C20
:1007980006E000BF4FF0010C02E000BF4FF0010C73
:1007A8004DF804CD4FEA40024FEA41037FEA226C3C
:1007B80018BF7FEA236C11D001B052EA530C18BF5E
:1007C80090EA010F58BFB2EB030088BFC81738BFC3
:1007D8006FEAE17018BF40F0010070477FEA226CB1
:1007E80002D15FEA402C05D17FEA236CE4D15FEAAD
:1007F800412CE1D05DF8040B704700BF84460846E1
:100808006146FFE70FB5FFF7C9FF002848BF10F1A1
:10081800000F0FBD4DF808EDFFF7F4FF0CBF0120E6
:1008280000205DF808FB00BF4DF808EDFFF7EAFF70
:1008380034BF012000205DF808FB00BF4DF808ED2B
:10084800FFF7E0FF94BF012000205DF808FB00BF20
:100858004DF808EDFFF7D2FF94BF012000205DF8A6
:1008680008FB00BF4DF808EDFFF7C8FF34BF0120B3
:1008780000205DF808FB00BF4FEA4002B2F1FE4FCE
:100888000FD34FF09E03B3EB12620DD94FEA00234A
:1008980043F0004310F0004F23FA02F018BF404223
:1008A80070474FF00000704712F1610F01D142020A
:1008B80005D110F0004008BF6FF0004070474FF0BE
:1008C8000000704742000ED2B2F1FE4F0BD34FF03A
:1008D8009E03B3EB126209D44FEA002343F00043AE
:1008E80023FA02F070474FF00000704712F1610FD1
:1008F80001D1420202D14FF0FF3070474FF00000A3
:10090800704700BF53B94AB9002908BF00281CBF67
:100918004FF0FF314FF0FF3000F074B9ADF1080C23
:100928006DE904CE00F006F8DDF804E0DDE9022305
:1009380004B070472DE9F047089E0D4604468846E6
:10094800002B4DD18A42944668D9B2FA82F252B14C
:1009580001FA02F3C2F1200120FA01F10CFA02FCBB
:1009680041EA030894404FEA1C45210CB8FBF5FE08
:100978001FFA8CF705FB1E8341EA03430EFB07F1C0
:1009880099420BD91CEB03030EF1FF3080F01E8156
:10099800994240F21B81AEF1020E63445B1AA4B285
:1009A800B3FBF5F005FB103344EA034400FB07F7FB
:1009B800A7420AD91CEB040400F1FF3380F0088138
:1009C800A74240F2058164440238E41B40EA0E4025
:1009D80000211EB1D4400023C6E90043BDE8F087DA
:1009E8008B4208D9002E00F0EE800021C6E90005F0
:1009F8000846BDE8F087B3FA83F100294AD1AB4233
:100A080002D3824200F2F980841A65EB03030120C5
:100A18009846002EE2D0C6E90048DFE702B9FFDEBB
:100A2800B2FA82F2002A40F09180A1EB0C054FEA5D
:100A38001C471FFA8CFE0121B5FBF7F307FB135087
:100A4800250C45EA00450EFB03F0A84208D91CEB2B
:100A5800050503F1FF3802D2A84200F2CB804346D5
:100A68002D1AA4B2B5FBF7F007FB105544EA05446C
:100A78000EFB00FEA64508D91CEB040400F1FF3567
:100A880002D2A64500F2BB802846A4EB0E0440EA39
:100A980003409EE7C1F120078B4022FA07FC4CEA8D
:100AA800030C20FA07F405FA01F31C43FD404FEA52
:100AB8001C4900FA01F3B5FBF9F8200C1FFA8CFE6B
:100AC80009FB185540EA054508FB0EF0A84202FA52
:100AD80001F20BD91CEB050508F1FF3A80F088807C
:100AE800A84240F28580A8F1020865442D1AA4B2F4
:100AF800B5FBF9F009FB105544EA054500FB0EFE6D
:100B0800AE4508D91CEB050500F1FF346CD2AE45A3
:100B18006AD90238654440EA0840A0FB0294A5EB74
:100B28000E05A542C846A64656D353D05EB1B3EBD0
:100B3800080265EB0E0505FA07F722FA01F3CD4026
:100B48001F43C6E900750021BDE8F087C2F1200304
:100B580020FA03F10CFA02FC25FA03F395400D4341
:100B68004FEA1C471FFA8CFEB3FBF7F107FB113065
:100B78002B0C43EA004301FB0EF0984204FA02F4FE
:100B880008D91CEB030301F1FF382FD298422DD965
:100B9800023963441B1AADB2B3FBF7F007FB1033FD
:100BA80045EA034500FB0EF3AB4208D91CEB0505EB
:100BB80000F1FF3816D2AB4214D902386544ED1A59
:100BC80040EA014138E73146304607E78646E5E620
:100BD8001846FAE64B45A9D2B9EB020864EB0C0EAD
:100BE8000138A3E74046EAE7204694E74146D1E7C3
:100BF800D0467BE7023B654432E7084609E7644490
:100C0800023842E7704700BF10B50446042001F0DF
:100C18003FFA014B1C6010BD800400240E4B1B687A
:100C280003FB00F04FF0E023586100229A611A6933
:100C380042F001021A614FF0E0231B6903F001132F
:100C4800012BF8D04FF0E0231A6922F001021A6153
:100C580000229A61704700BF8004002438B50D4C0B
:100C6800A4FB003425092C46C5EB0515A0EB45006F
:100C780085B204E047F23050FFF7D0FF013C002C6A
:100C8800F8D105B938BD4FF47A7005FB00F0FFF7CD
:100C9800C5FFF7E7898888882DE9F0418AB00024E4
:100CA80005940694079408940994474BD3F8E020D8
:100CB80042F00402C3F8E020D3F8E02002F0040276
:100CC8000092009AD3F8E02042F08002C3F8E020B6
:100CD800D3F8E02002F080020192019AD3F8E020D4
:100CE80042F00102C3F8E020D3F8E02002F001024C
:100CF8000292029AD3F8E02042F00202C3F8E02000
:100D0800D3F8E02002F002020392039AD3F8E0201D
:100D180042F01002C3F8E020D3F8E03003F01003EB
:100D28000493049BDFF8A48022460F21404601F07B
:100D3800B2FD274F22460721384601F0ACFD254E6B
:100D480022464FF4F141304601F0A5FD0F230593EB
:100D5800012506950794089405A9404601F080FCF2
:100D68000723059306950794089405A9384601F0CA
:100D780077FC4FF4D1430593069507940323089312
:100D880005A9304601F06CFC4FF480630593069585
:100D9800079405A9304601F063FC4FF4805305938E
:100DA800069507950223089305A9304601F058FCDB
:100DB8004FF4004305930694079405A9304601F0C3
:100DC8004FFC0AB0BDE8F081004402580008025800
:100DD800000402580010025872B6FEE700B59DB034
:100DE8004C22002109A805F0D3FB2022002101A8EC
:100DF80005F0CEFB022001F05DFD00230093264B99
:100E0800DA6A22F00102DA62DB6A03F00103009376
:100E1800224A936923F4404343F40043936193695E
:100E280003F440430093009B1C4B9B6913F4005F41
:100E3800FAD0012309934FF480330A9302231293C3
:100E48001393192214924FF4F07215921693179374
:100E58001893002319931A931B9309A801F054FDC2
:100E6800B0B93F230193032302930023039308227D
:100E780004920593402206924FF4806207920893E9
:100E8800022101A802F086F920B91DB05DF804FB23
:100E9800FFF7A2FFFFF7A0FF000400580048025820
:100EA80008B501F045F8F020FFF7AEFEFFF796FF12
:100EB800FFF7F2FE00F0F6F900F012F900F09AFAE6
:100EC80000F044F900F030FC00F0EAFA00F06CFCA5
:100ED80000F00AFD3C20FFF7C1FE002008BD00001D
:100EE80082B0074BD3F8F42042F00202C3F8F42092
:100EF800D3F8F43003F002030193019B02B070476A
:100F08000044025838B50368214A934203D0214A65
:100F1800934216D038BD204B1B781D2B08D81E4A8B
:100F280051780A2904D0581C10701344997002E0B3
:100F3800194B00221A7001221849194805F044FA81
:100F4800E8E7154C14F8410F00F098FC154BB3F97D
:100F58000400FFF777FA4FF06051FFF7C7FA12491C
:100F6800FFF7C4FA114DA860114BB3F90400FFF75D
:100F780069FA4FF06051FFF7B9FA0E49FFF7B6FA70
:100F8800E860012221460C4805F01EFAC2E700BFBE
:100F9800001001400048004000060024010600241B
:100FA800C00600247008002400003443D808002438
:100FB800780800240000FA44E0070024FEE7FEE772
:100FC800FEE7FEE7FEE770477047704708B500F098
:100FD800DDFF08BD08B5024801F063FC08BD00BF8D
:100FE8008404002408B5024804F0ECF808BD00BFEA
:100FF800C006002408B5024804F0E4F808BD00BFA4
:101008005007002408B5024804F0DCF808BD00BF0A
:10101800E007002408B5024803F018FC08BD00BF2B
:10102800B4050024244B1B6803F00F03062B06D8D5
:10103800214A136823F00F0343F0070313601F4B83
:101048001A6842F001021A6000221A6119681C4AE3
:101058000A401A60184B1B6813F0080F06D0164A8E
:10106800136823F00F0343F007031360134B0022A8
:101078009A61DA611A62134999621349D96213496C
:1010880019635A639963DA6319645A64196821F415
:10109800802119601A660E4B1A680E4B1340B3F183
:1010A800005F03D20C4B0122C3F808210B4B43F21B
:1010B800D2021A60704700BF002000520044025854
:1010C8007FEDF6EA000202020000FF018002010142
:1010D8000010005C0000FFFF00800051004000523B
:1010E80000B58DB02422002103A805F051FA002391
:1010F8000093019302931348134A0260436083608C
:101108004FF6FF72C2600361836101230393059365
:10111800099303A903F04AFD70B9002300930293D1
:101128006946084803F0AEFF48B93C21054803F07A
:1011380045FF0DB05DF804FBFFF74EFEEDE7FFF746
:101148004BFEF2E71C0500240004004000B585B002
:1011580000230193029303931448154A0260032263
:101168004260836045F6BF53C3608023836103F008
:10117800BDFCA8B900230193039301A90B4803F010
:1011880081FF80B9094803F015FB0022114637207A
:1011980000F026FF372000F059FF05B05DF804FB8A
:1011A800FFF71AFEE6E7FFF717FEEBE7B4050024A2
:1011B8000014004030B58BB00023059306930793C5
:1011C800089309930368B3F1804F04D0314A9342DE
:1011D8003CD00BB030BD304BD3F8E82042F00102D0
:1011E800C3F8E820D3F8E82002F001020092009A40
:1011F800D3F8E02042F00102C3F8E020D3F8E02061
:1012080002F001020192019AD3F8E02042F00202B2
:10121800C3F8E020D3F8E03003F002030293029B06
:1012280020230593022506950124099405A91B4846
:1012380001F016FA082305930695002307930893EF
:10124800099405A9164801F00BFAC2E7124BD3F826
:10125800E82042F00202C3F8E820D3F8E82002F0C0
:1012680002020392039AD3F8E02042F00102C3F885
:10127800E020D3F8E03003F001030493049BC0237B
:10128800059302230693099305A9044801F0E8F998
:101298009FE700BF000400400044025800000258C5
:1012A8000004025810B58CB01C4C2046FFF782FF92
:1012B8002422002103A805F06BF900230093019371
:1012C80002934FF0804222606360A3604FF0FF32C8
:1012D800E2602361A3610323039301230593099328
:1012E80003A9204603F062FC88B900230093029307
:1012F80069460A4803F0C6FE60B9084C204603F068
:1013080059FA3C21204603F059FE0CB010BDFFF7F6
:1013180063FDEAE7FFF760FDEFE700BFD0040024B4
:1013280002680A4B9A4200D0704782B0084BD3F843
:10133800E82042F00802C3F8E820D3F8E83003F0C8
:1013480008030193019B02B0704700BF000C0040E6
:101358000044025802680F4B9A4200D0704700B50B
:1013680083B00D4BD3F8E82042F02002C3F8E82000
:10137800D3F8E83003F020030193019B00221146C3
:10138800372000F02DFE372000F060FE03B05DF836
:1013980004FB00BF001400400044025800B587B0A9
:1013A80000230193029303930493059302680E4B61
:1013B8009A4202D007B05DF804FB0C4BD3F8E0204A
:1013C80042F00102C3F8E020D3F8E03003F0010353
:1013D8000093009B0323019302230293059301A921
:1013E800034801F03DF9E5E7000C004000440258CD
:1013F8000000025810B58AB0002307930893099398
:101408000093019302930393049305930693224850
:10141800224A026041F28732426083600422C2603D
:101428000361836103F092FB48BB00230793099390
:1014380007A9194803F026FE20BB60230093002269
:101448000192029204926946134803F057FCE0B9EE
:1014580004226946104803F051FCC8B90E4C042117
:10146800204603F0F7FC0021204603F0F3FC204659
:10147800FFF794FF2046FFF791FF0AB010BDFFF772
:10148800ABFCD2E7FFF7A8FCD7E7FFF7A5FCDFE73F
:10149800FFF7A2FCE2E700BF68050024000C00404B
:1014A80008B51A481A4B03604FF4E1334360002330
:1014B8008360C36003610C2242618361C36103627C
:1014C8004362836204F0A9FE98B900210F4804F032
:1014D800F1FF88B900210D4805F011F878B90B48DB
:1014E80004F0C9FF70B901220A49084804F06CFFEA
:1014F80008BDFFF771FCE8E7FFF76EFCEAE7FFF7C6
:101508006BFCECE7FFF768FCEDE700BFC0060024C2
:10151800001001400106002430B5BDB0044600218A
:101528003791389139913A913B91BC2208A805F03E
:101538002FF82368744A93420BD0744A934241D0DF
:10154800734A934276D0734A934200F0AC803DB020
:1015580030BD0123089308A802F0B8F878BB6E4B99
:10156800D3F8F02042F01002C3F8F020D3F8F020AE
:1015780002F010020092009AD3F8E02042F0010233
:10158800C3F8E020D3F8E03003F001030193019B96
:101598004FF4C063379302233893002439943A9464
:1015A80007233B9337A95D4801F05AF822460121E9
:1015B800252000F015FD252000F048FDC7E7FFF7BE
:1015C8000BFCCCE70223089308A802F07FF870BB55
:1015D800514BD3F8E82042F40032C3F8E820D3F89E
:1015E800E82002F400320292029AD3F8E02042F096
:1015F8000102C3F8E020D3F8E03003F001030393BD
:10160800039B0C23379302253895002439943A9488
:1016180007233B9337A9414801F022F8224629467F
:10162800262000F0DDFC262000F010FD8FE7FFF7F4
:10163800D3FBCDE70223089308A802F047F878BB4C
:10164800354BD3F8E82042F48022C3F8E820D3F8D9
:10165800E82002F480220492049AD3F8E02042F0B1
:101668000202C3F8E020D3F8E03003F00203059348
:10167800059B4FF440633793022338930024399431
:101688003A9407233B9337A9254800F0E9FF2246FF
:101698002146272000F0A4FC272000F0D7FC56E7BD
:1016A800FFF79AFBCCE70123089308A802F00EF88D
:1016B80030BB194BD3F8F02042F02002C3F8F020D9
:1016C800D3F8F02002F020020692069AD3F8E02020
:1016D80042F00402C3F8E020D3F8E03003F004033A
:1016E8000793079BC023379302233893002339932A
:1016F8003A9307233B9337A90A4800F0B1FF26E73E
:10170800FFF76AFBD5E700BF001001400044004026
:1017180000480040001401400044025800000258EC
:10172800000402580008025810B51C481C4B0360FE
:101738004FF41653436000238360C36003610C2297
:1017480042618361C36103624362836204F065FDA1
:10175800B8B90021114804F0ADFEA8B900210F481E
:1017680004F0CDFE98B90D4804F085FE90B90B4CF5
:101778002046FFF7D1FE01220A49204604F024FE44
:1017880010BDFFF729FBE4E7FFF726FBE6E7FFF7C5
:1017980023FBE8E7FFF720FBE9E700BF5007002439
:1017A800004400402106002410B51C481C4B03606F
:1017B8004FF4E133436000238360C36003610C226C
:1017C80042618361C36103624362836204F025FD61
:1017D800B8B90021114804F06DFEA8B900210F48DE
:1017E80004F08DFE98B90D4804F045FE90B90B4CF5
:1017F8002046FFF791FE01220A49204604F0E4FD45
:1018080010BDFFF7E9FAE4E7FFF7E6FAE6E7FFF7C6
:10181800E3FAE8E7FFF7E0FAE9E700BFE0070024AA
:101828000048004041060024DFF834D0FFF7FAFBF7
:101838000C480D490D4A002302E0D458C450043323
:10184800C4188C42F9D30A4A0A4C002301E01360F9
:101858000432A242FBD304F077FEFFF721FB704766
:1018680000000824000000246404002484670008A1
:101878006404002460090024FEE70000164B93F876
:101888006020511CC9B283F860101A4482F86200C3
:1018980093F86230552B04D00F4B002283F8602058
:1018A80070470A290AD90C4B93F86330522B06D09B
:1018B800532B0AD0084B002283F860207047074A50
:1018C800074B1068516803C3F4E7044A054B1068D6
:1018D800516803C3EEE700BF000600246406002435
:1018E8007808002470080024094B0A4ADA610A4A79
:1018F8001A620A4B0A4ADA610A4A1A620A4B4FF01C
:101908008142DA61094A1A6200225A62704700BFAE
:1019180080080024C1CA213E0AD7233CAC08002411
:101928003D0A17BF6F1283BBF4080024CDCCCC3D11
:1019380070B5081AFEF786FD06462F4B186020F092
:1019480000404FF08041FEF76FFF002831D02A4B4E
:1019580000229A60284DEC6969683046FEF7BCFCA5
:1019680001462046FEF7C2FDA968FEF7B7FCA96943
:10197800FEF7B4FC0446A8616E602049FEF772FFCA
:1019880058B14FF001051E492046FEF74DFF08B932
:101998004FF00005EDB2002D2CD018492046FEF777
:1019A80061FF00B9154C144B9C612046FEF764FF9B
:1019B80070BD114D296A3046FEF798FD0446A860AF
:1019C8001049FEF74FFF50B14FF001050E49204670
:1019D800FEF72AFF08B94FF00005EDB245B10949F5
:1019E8002046FEF73FFF00B9064C034B9C60B1E769
:1019F800054CFAE7024CD6E78008002400007AC5B7
:101A080000007A450080BBC40080BB4470B5081A4A
:101A1800FEF718FD06462F4B186020F000404FF0E7
:101A28008041FEF701FF002831D02A4B00229A603E
:101A3800284DEC6969683046FEF74EFC01462046A1
:101A4800FEF754FDA968FEF749FCA969FEF746FCB4
:101A58000446A8616E602049FEF704FF58B14FF0B4
:101A680001051E492046FEF7DFFE08B94FF00005C4
:101A7800EDB2002D2CD018492046FEF7F3FE00B930
:101A8800154C144B9C612046FEF7F6FE70BD114DB7
:101A9800296A3046FEF72AFD0446A8601049FEF779
:101AA800E1FE50B14FF001050E492046FEF7BCFE9D
:101AB80008B94FF00005EDB245B109492046FEF7D7
:101AC800D1FE00B9064C034B9C60B1E7054CFAE720
:101AD800024CD6E7AC08002400007AC500007A451D
:101AE8000080BBC40080BB4430B583B005460123E9
:101AF800ADF80630274A00215170ADF806300DE0E8
:101B080000224FF48041244800F0C5FE15E0BDF8DE
:101B180006309BB25B009BB2ADF80630BDF80630CC
:101B28009BB2FF2B31D8BDF806301D42E8D0012208
:101B38004FF48041184800F0AEFE174C01224FF4D4
:101B48000051204600F0A7FE0A20FFF767F80022A0
:101B58004FF40051204600F09EFE0A20FFF75EF881
:101B680001224FF40051204600F095FE4FF4004149
:101B7800204600F089FE0028C9D0BDF806309AB288
:101B880004494B7813434B70C1E71020FFF746F820
:101B980003B030BD340900240010025810B582B0DB
:101BA80000228DF807204FF48051314800F073FE71
:101BB800304C2078FFF798FF6078FFF795FF0223F5
:101BC8008DF8073043E02C4A13889BB25B009BB228
:101BD8001380294B1B889BB2FF2B2FD8244C012242
:101BE8004FF40051204600F056FE0A20FFF716F881
:101BF80000224FF40051204600F04DFE0A20FFF766
:101C08000DF801224FF40051204600F044FE4FF435
:101C18000041204600F038FE184B18700028D2D03A
:101C2800154B1A8891B29DF80730DBB21448C25C94
:101C38009DF80730DBB20A43C254C4E71020FEF710
:101C4800EDFF9DF807300133DBB28DF807309DF8C2
:101C58000730DBB2082B03D8074B01221A80B8E7FC
:101C680001224FF48051024800F015FE02B010BD69
:101C780000100258080000240A0000245509002416
:101C880034090024014B185C704700BF3409002454
:101C9800002304E0034A0021D1540133DBB2082BAE
:101CA800F8D970473409002410B5FFF7F1FFFFF7A2
:101CB80075FF0720FFF7E6FF80382F4CE0700820FB
:101CC800FFF7E0FF8038C0B2C04320710520FFF75E
:101CD800D9FF803860700620FFF7D4FF8038C0B283
:101CE800C043A0702549CB7883F0010202F00102BD
:101CF80062746FEAD30202F00102A2746FEA13124F
:101D080002F00102E2726FEA531202F001026272FB
:101D18006FEA931202F0010222736FEAD31303F001
:101D28000103A3720B796FEA131202F00102E27346
:101D38006FEA531202F0010262736FEA931202F023
:101D4800010222746FEAD31202F00102A27383F037
:101D5800010202F00102A2716FEA530202F00102CD
:101D680022726FEA930202F0010262716FEAD303F2
:101D780003F00103E37110BD400900243409002475
:101D8800084B1B68586A00B2074A126932B1064903
:101D98008A6802448A6000225A627047024A002117
:101DA8009160F8E7D00400240C000024084B1B685D
:101DB800586A00B2074A526932B10649CA680244F1
:101DC800CA6000225A627047024A0021D160F8E7CF
:101DD8001C0500240C00002410B5064C01221146F5
:101DE800204600F058FD00220221204600F053FD55
:101DF80010BD00BF0008025810B5064C0022012192
:101E0800204600F048FD01220221204600F043FD53
:101E180010BD00BF0008025810B5064C012204216D
:101E2800204600F038FD00220821204600F033FD4E
:101E380010BD00BF0008025810B5064C002204214E
:101E4800204600F028FD01220821204600F023FD4D
:101E580010BD00BF0008025810B50C4600280ADD66
:101E68000B4B5863FFF7C8FF002C0ADD084B9C6337
:101E7800FFF7E2FF10BD4042054B5863FFF7ACFF88
:101E8800F2E76442024B9C63FFF7C6FFF2E700BF2C
:101E9800000C004038B502680E4B9A4200D038BD9D
:101EA800FFF702FFFFF76CFF0B4C2060FFF77EFF88
:101EB80060600A4DE9682068FFF73AFDA06129696A
:101EC8006068FFF7A3FD0146E061A069FFF7C4FF62
:101ED800E5E700BF001400400C000024200900249E
:101EE800104B1B780BB90120704710B504464FF40E
:101EF8007A70B0FBF3F30C4A1068B0FBF3F000F013
:101F0800B3F868B90F2C01D901200AE00022214654
:101F18004FF0FF3000F064F8044B1C60002000E034
:101F2800012010BD2C0000240000002430000024F3
:101F380010B5032000F042F801F020F80F498B6932
:101F4800C3F303230E4AD35C03F01F03D8408B6905
:101F580003F00F03D35C03F01F0320FA03F3094ACD
:101F68001360094B18600F20FFF7BAFF10B1012466
:101F7800204610BD0446FEF7B3FFF9E700440258B7
:101F8800346700080400002400000024034B1B7879
:101F9800034A11680B441360704700BF2C000024EB
:101FA80058090024014B1868704700BF58090024DD
:101FB800014B1868000C70470010005C0649CB689C
:101FC80023F4E0631B041B0C000200F4E0600343ED
:101FD800024A1A43CA60704700ED00E00000FA05A3
:101FE80000B5174BDB68C3F30223C3F1070CBCF140
:101FF800040F28BF4FF0040C03F1040EBEF1060FC6
:1020080014D9033B4FF0FF3E0EFA0CFC21EA0C01F9
:1020180099400EFA03F322EA03031943002807DB69
:102028000901C9B2074B19545DF804FB0023E9E71D
:1020380000F00F000901C9B2034B1954F4E700BFBF
:1020480000ED00E000E400E014ED00E0002807DB0C
:1020580000F01F02400901239340024A42F8203051
:10206800704700BF00E100E00138B0F1807F0BD27B
:102078004FF0E0235861054AF02182F82310002030
:10208800986107221A6170470120704700ED00E04F
:10209800042806D04FF0E022136923F004031361EB
:1020A80070474FF0E022136943F00403136170474F
:1020B80070B50446FFF776FF002C00F091810546C5
:1020C80094F83530DBB2022B06D0802363650023F9
:1020D80084F83430012070BD23688C498C4A9342BF
:1020E80018BF8B4230D0183293422DD01832934209
:1020F8002AD01832934227D01832934224D018326B
:10210800934221D0183293421ED002F55672934260
:102118001AD01832934217D01832934214D018327A
:10212800934211D0183293420ED0183293420BD0FA
:102138001832934208D01832934205D01A6822F018
:102148000E021A60266809E01A6822F01E021A6058
:102158002268536923F080035361266823686B491A
:102168006B4A934218BF8B4242D0183293423FD0F9
:10217800183293423CD01832934239D018329342E5
:1021880036D01832934233D01832934230D002F509
:10219800567293422CD01832934229D01832934267
:1021A80026D01832934223D01832934220D01832C6
:1021B80093421DD0183293421AD01832934217D046
:1021C800544A934214D01432934211D01432934299
:1021D8000ED0143293420BD01432934208D01432EA
:1021E800934205D01432934202D01432934204D160
:1021F800226E136823F48073136023684349444AAA
:10220800934218BF8B422FD0183293422CD01832E9
:10221800934229D01832934226D01832934223D0C1
:102228001832934220D0183293421DD002F55672CC
:10223800934219D01832934216D01832934213D0D1
:102248001832934210D0183293420DD0183293426C
:102258000AD01832934207D01832934204D01A6831
:1022680022F001021A6003E01A6822F001021A60E3
:10227800336813F0010F0ED0FFF794FE431B052BB4
:10228800F6D920236365032384F83530002384F8C6
:10229800343001201FE723681C491D4A934218BFA8
:1022A8008B4239D01832934236D01832934233D009
:1022B8001832934230D0183293422DD018329342BC
:1022C8002AD01832934227D002F55672934223D06F
:1022D8001832934220D0183293421DD018329342BC
:1022E8001AD01832934217D01832934214D01832A9
:1022F800934211D0183293420ED0A16DE36D03F0D2
:102308001F02012393404B600DE000BF1000024004
:102318002800024008540258A16DE36D03F01F0223
:102328003F2393408B6023682E492F4A934218BF5E
:102338008B4242D0183293423FD0183293423CD05D
:102348001832934239D01832934236D01832934219
:1023580033D01832934230D002F5567293422CD0C3
:102368001832934229D01832934226D01832934219
:1023780023D01832934220D0183293421DD01832FD
:1023880093421AD01832934217D0184A934214D065
:102398001432934211D0143293420ED01432934225
:1023A8000BD01432934208D01432934205D0143221
:1023B800934202D0143293420BD1636EA26E5A60DC
:1023C800E36E33B11A6822F480721A60236F626F69
:1023D8005A60012384F83530002084F834007AE606
:1023E800012078E6100002402800024008540258F4
:1023F800002800F0298108B5024690F83530DBB294
:10240800022B03D080234365012008BD0368904850
:1024180090498B4218BF83420CBF0121002166D02E
:102428003030834263D01830834260D01830834202
:102438005DD0183083425AD01830834257D01830B4
:10244800834254D000F55670834250D018308342EE
:102458004DD0183083424AD01830834247D01830C4
:10246800834244D01830834241D0183083423ED052
:10247800183083423BD0196821F00E0119601368A7
:10248800A0F5956073498B4218BF83426AD07249A0
:102498008B4267D018318B4264D018318B4261D09F
:1024A80018318B425ED018318B425BD018318B4289
:1024B80058D001F556718B4254D018318B4251D007
:1024C80018318B424ED018318B424BD018318B4289
:1024D80048D018318B4245D018318B4242D0183140
:1024E8008B423FD0196821F0010119603EE00420B9
:1024F80082F8350081BB584A93422DD01832934256
:102508002AD01832934227D01832934224D0183256
:10251800934221D0183293421ED002F5567293424C
:102528001AD01832934217D01832934214D0183266
:10253800934211D0183293420ED0183293420BD0E6
:102548001832934208D01832934205D01A6822F004
:1025580001021A60002058E71A6822F001021A6086
:10256800002052E7196821F0010119601368384802
:1025780038498B4218BF834242D018318B423FD032
:1025880018318B423CD018318B4239D018318B42EC
:1025980036D018318B4233D018318B4230D001F508
:1025A80056718B422CD018318B4229D018318B426E
:1025B80026D018318B4223D018318B4220D01831C5
:1025C8008B421DD018318B421AD018318B4217D04C
:1025D80022498B4214D014318B4211D014318B42D2
:1025E8000ED014318B420BD014318B4208D01431E9
:1025F8008B4205D014318B4202D014318B4217D153
:10260800116E0B6823F480730B60906DD36D03F02B
:102618001F0101238B404360536E916E5960D36E46
:1026280033B1196821F480711960136F516F5960C3
:10263800012382F83530002382F83430136D2BB132
:10264800104698470020E0E6012070470020DCE6AD
:10265800100002402800024040000240085402587E
:1026680070B582B000236EE085685E000324B44034
:1026780025EA0405CC68B4402C438460446824EA05
:102688000C0C4C68C4F300149C4044EA0C044460ED
:102698006CE0DD08083550F8256003F007044FEAC0
:1026A800840C0F2404FA0CF426EA040E0C6904FACC
:1026B8000CF444EA0E0440F825406FE0092400E0D9
:1026C800002404FA0EF42C430CF1020C6B4D45F86F
:1026D8002C404FF0B0442568D44325EA0206D1F8CF
:1026E80004C01CF4801F01D042EA05064FF0B04533
:1026F8002E606D6804EA0506D1F804C01CF4001FBA
:1027080001D042EA05064FF0B0456E60D5F8845016
:1027180004EA0506D1F804C01CF4003F01D042EADF
:1027280005064FF0B045C5F88460D5F880502C40B8
:102738004E6816F4803F01D042EA05044FF0B042DB
:10274800C2F8804001330A6832FA03F400F093803B
:102758004FF0010C0CFA03FC1CEA0202F2D04C68A0
:1027680004F00304013C012C7FF67EAF4C6804F0B2
:102778000304032C0CD0C4685D004FF0030C0CFA62
:1027880005FC24EA0C0C8C68AC4044EA0C04C460D8
:102798004C6804F00304022C3FF47BAF04684FEA52
:1027A800430E4FF0030C0CFA0EFC24EA0C0C4C6898
:1027B80004F0030404FA0EF444EA0C0404604C68C0
:1027C80014F4403FBED02E4CD4F8F45045F0020526
:1027D800C4F8F450D4F8F44004F002040194019CC5
:1027E8004FEA930C0CF10205244C54F8255003F0E1
:1027F80003044FEA840E0F2404FA0EF425EA0405B4
:10280800204CA0423FF45CAF04F58064A04222D083
:1028180004F58064A04220D004F58064A0421ED054
:1028280004F58064A0421CD004F58064A0421AD04C
:1028380004F58064A04218D004F58064A04216D044
:1028480004F58064A04214D004F58064A0423FF4EB
:1028580035AF0A2435E7012433E7022431E703249E
:102868002FE704242DE705242BE7062429E707246E
:1028780027E7082425E702B070BD00BF0004005810
:1028880000440258000002580369194201D001208F
:102898007047002070470AB181617047090481615F
:1028A800704708B5036899691A68436B03B198477C
:1028B80008BD0000134BDB6813F0040F07D1114B60
:1028C800DB6803F0070383421AD00120704710B574
:1028D8000C4AD36823F007031843D060FFF762FB64
:1028E8000446084B5B6813F4005F07D1FFF75AFBF7
:1028F800001BB0F57A7FF4D9012000E0002010BD5C
:102908000020704700480258002800F0188338B5A6
:102918000446036813F0010F25D0944A136903F0A5
:102928003803926A102B15D0182B0FD06368B3F5B3
:10293800803F3FD0002B53D18C4B1A6822F4803251
:102948001A601A6822F480221A6038E002F0030242
:10295800022AEBD1854B1B6813F4003F03D0636850
:10296800002B00F0EE82236813F0020F00F0A18024
:102978007E4A1369926A13F038035AD0182B55D03F
:10298800E368002B00F0DE8078490A6822F019021B
:1029980013430B60FFF706FB0546744B1B6813F0E7
:1029A800040F40F0AD80FFF7FDFA401B0228F4D970
:1029B8000320CDE26D4A136843F4803313606368E3
:1029C8002BB3FFF7EFFA0546684B1B6813F4003F7B
:1029D800C9D1FFF7E7FA401B6428F5D90320B7E20D
:1029E800B3F5A02F09D0614B1A6822F480321A601F
:1029F8001A6822F480221A60E1E75C4B1A6842F4F4
:102A080080221A601A6842F480321A60D7E7FFF70A
:102A1800C9FA0546554B1B6813F4003FA3D0FFF7CE
:102A2800C1FA401B6428F5D9032091E212F0030F84
:102A3800A6D14E4B1B6813F0040F03D0E368002B9C
:102A480000F08182494A136823F01903E1680B43B7
:102A58001360FFF7A7FA0546444B1B6813F0040FF1
:102A680006D1FFF79FFA401B0228F5D903206FE231
:102A7800FFF79EFA41F20303984212D82269402ACE
:102A880007D03A494B6823F47C3343EA02334B605E
:102A98000FE0364A536823F47C3343F40033536021
:102AA80007E0324A536823F0FE43216943EA016391
:102AB8005360236813F0100F00F088802B4A1369C5
:102AC80003F03803926A082B56D0182B50D0E369CC
:102AD800002B00F0B880254A136843F08003136088
:102AE800FFF760FA0546214B1B6813F4807F40F01E
:102AF8008880FFF757FA401B0228F4D9032027E201
:102B0800FFF756FA41F20303984212D82269402A85
:102B180007D016494B6823F47C3343EA02334B60F1
:102B2800C7E7124A536823F47C3343F400335360F5
:102B3800BFE70E4A536823F0FE43216943EA016365
:102B48005360B6E7094A136823F001031360FFF7DF
:102B580029FA0546054B1B6813F0040FA9D0FFF7A7
:102B680021FA401B0228F5D90320F1E1004402585C
:102B780002F00302012AAAD1A14B1B6813F4807F3B
:102B880003D0E369802B40F0E081FFF711FA41F2AE
:102B98000303984212D8226A202A07D098494B6822
:102BA80023F0F84343EA82634B600FE0944A53688A
:102BB80023F0F84343F08043536007E0904AD3681A
:102BC80023F07C53216A43EA0163D360236813F03E
:102BD800080F60D06369002B49D0894A536F43F0CE
:102BE80001035367FFF7DEF90546854B5B6F13F06A
:102BF800020F50D1FFF7D6F9401B0228F5D9032060
:102C0800A6E1FFF7D5F941F20303984212D8226AE8
:102C1800202A07D07A494B6823F0F84343EA8263B5
:102C28004B60D3E7764A536823F0F84343F0804378
:102C38005360CBE7724AD36823F07C53216A43EA96
:102C48000163D360C2E76E4A136823F08003136000
:102C5800FFF7A8F905466A4B1B6813F4807FB5D0C7
:102C6800FFF7A0F9401B0228F5D9032070E1644A58
:102C7800536F23F001035367FFF794F90546604B40
:102C88005B6F13F0020F06D0FFF78CF9401B022888
:102C9800F5D903205CE1236813F0200F29D0A3693C
:102CA8009BB1574A136843F480531360FFF77AF9CE
:102CB8000546534B1B6813F4005F1AD1FFF772F9EE
:102CC800401B0228F5D9032042E14D4A136823F43A
:102CD80080531360FFF766F90546494B1B6813F4E8
:102CE800005F06D0FFF75EF9401B0228F5D90320E4
:102CF8002EE1236813F0040F21D1636A002B00F042
:102D080026813F4A126902F03802182A00F0EE8044
:102D1800022B79D03A4A136823F080731360FFF7C7
:102D280041F90446364B1B6813F0007F00F0DC8045
:102D3800FFF738F9001B0228F4D9032008E1314ACB
:102D4800136843F480731360FFF72CF905462D4B85
:102D58001B6813F4807F06D1FFF724F9401B642811
:102D6800F5D90320F4E0A368012B0AD00BBB244B50
:102D78001A6F22F001021A671A6F22F004021A670A
:102D880004E01F4A136F43F001031367A36833B3CA
:102D9800FFF708F905461A4B1B6F13F0020FACD169
:102DA800FFF700F9401B41F288339842F3D903201A
:102DB800CEE0052B09D0124B1A6F22F001021A67D8
:102DC8001A6F22F004021A67E0E70D4B1A6F42F0FF
:102DD80004021A671A6F42F001021A67D6E7FFF772
:102DE800E1F80546064B1B6F13F0020F85D0FFF77D
:102DF800D9F8401B41F288339842F3D90320A7E061
:102E08000044025800480258594A136823F0807356
:102E18001360FFF7C7F80546554B1B6813F0007F92
:102E280006D0FFF7BFF8401B0228F5D903208FE032
:102E38004F4B996A4F4A0A40A16AE06A41EA001179
:102E48000A439A62226B013AC2F30802616B0139A4
:102E5800490289B20A43A16B0139090401F4FE0150
:102E68000A43E16B0139090601F0FE410A431A637E
:102E7800DA6A22F00102DA62596B3F4A0A40A16C11
:102E880042EAC1025A63DA6A22F00C02216C0A4350
:102E9800DA62DA6A22F00202616C0A43DA62DA6AFA
:102EA80042F48032DA62DA6A42F40032DA62DA6ACA
:102EB80042F48022DA62DA6A42F00102DA621A68BF
:102EC80042F080721A60FFF76DF80446284B1B68C1
:102ED80013F0007F06D1FFF765F8001B0228F5D92B
:102EE800032035E0002033E0002031E0204A916AD9
:102EF800106B012B2DD001F00303A26A93422AD153
:102F0800C1F30511E36A994227D1C0F30802236B84
:102F1800013B9A4223D1C0F34622636B013B9A429C
:102F28001FD1C0F30642A36B013B9A421BD1C0F3E9
:102F38000660E36B013B984217D1002008E00120AE
:102F48007047012004E0012002E0012000E0002099
:102F580038BD0120FCE70120FAE70120F8E701204D
:102F6800F6E70120F4E70120F2E70120F0E700BFCF
:102F7800004402580CFCFFFF0700FFFFF8B57E4B2A
:102F88001B6903F03803102B00F0F280182B10D0C7
:102F980013B17A4C2046F8BD774B1B6813F0200F0D
:102FA80000F0E880744B1868C0F3C100744CC4404A
:102FB800F0E7714B9D6A05F003059C6AC4F305149C
:102FC800D86A00F001005B6BC3F3CC0303FB00F08D
:102FD800FDF734FA0646002CDCD0012D76D0022D00
:102FE80000F0A4800DB32046FDF728FA0146654895
:102FF800FDF730FB0446604B186BC0F30800FDF783
:103008001DFA05464FF064513046FDF76FFA014648
:103018002846FDF763F94FF07E51FDF75FF9014649
:103028002046FDF763FA044671E0534B1B6813F022
:10303800200F29D0504F3B68C3F3C1035048D840F4
:10304800FDF7FCF905462046FDF7F8F90146284644
:10305800FDF700FB0446386BC0F30800FDF7EEF9F6
:1030680005464FF064513046FDF740FA01462846C0
:10307800FDF734F94FF07E51FDF730F9014620464F
:10308800FDF734FA044642E02046FDF7D7F9014639
:103098003D48FDF7DFFA0446374B186BC0F30800CC
:1030A800FDF7CCF905464FF064513046FDF71EFA9E
:1030B80001462846FDF712F94FF07E51FDF70EF94B
:1030C80001462046FDF712FA044620E02046FDF7A7
:1030D800B5F901462B48FDF7BDFA0446264B186B97
:1030E800C0F30800FDF7AAF905464FF064513046D1
:1030F800FDF7FCF901462846FDF7F0F84FF07E5140
:10310800FDF7ECF801462046FDF7F0F904461A4BA6
:103118001B6BC3F34623581CFDF790F90146204664
:10312800FDF798FAFDF7CEFB044633E72046FDF796
:1031380085F901461548FDF78DFA04460E4B186BC4
:10314800C0F30800FDF77AF905464FF064513046A0
:10315800FDF7CCF901462846FDF7C0F84FF07E513F
:10316800FDF7BCF801462046FDF7C0F90446CEE756
:10317800074C0FE7024C0DE70044025800093D00D8
:103188000090D0030024744A0024744C20BCBE4B29
:1031980040787D01002800F0328170B50D46044664
:1031A8009B4B1B6803F00F038B420BD2984A1368A2
:1031B80023F00F030B431360136803F00F038B42D4
:1031C80040F01F81236813F0040F0CD02269914B43
:1031D8009B6903F070039A4205D98E498B6923F0E5
:1031E80070031A438A61236813F0080F0CD06269D0
:1031F800884BDB6903F070039A4205D98549CB698E
:1032080023F070031A43CA61236813F0100F0CD01F
:10321800A269804BDB6903F4E0639A4205D97D49D2
:10322800CB6923F4E0631A43CA61236813F0200FC3
:103238000CD0E269774B1B6A03F070039A4205D9F8
:1032480074490B6A23F070031A430A62236813F067
:10325800020F0CD0E2686F4B9B6903F00F039A4290
:1032680005D96C498B6923F00F031A438A612368D7
:1032780013F0010F41D0674A936923F47063A16882
:103288000B4393616368022B0AD0032B27D0012BD1
:103298002CD0604A126812F0040F06D10120ADE06C
:1032A800126812F4003F00F0AE805A490A6922F011
:1032B800070213430B61FEF775FE0646554B1B6963
:1032C80003F038036268B3EBC20F16D0FEF76AFE4C
:1032D800801B41F288339842F0D903208EE04D4A92
:1032E800126812F0007FE0D1012087E0494A126895
:1032F80012F4807FD9D1012080E0236813F0020FF7
:103308000CD0E268434B9B6903F00F039A4205D245
:1033180040498B6923F00F031A438A613C4B1B68B1
:1033280003F00F03AB420AD9394A136823F00F039D
:103338002B431360136803F00F03AB4265D1236876
:1033480013F0040F0CD02269324B9B6903F0700311
:103358009A4205D22F498B6923F070031A438A6178
:10336800236813F0080F0CD062692A4BDB6903F05D
:1033780070039A4205D22749CB6923F070031A4398
:10338800CA61236813F0100F0CD0A269214BDB69C6
:1033980003F4E0639A4205D21E49CB6923F4E06343
:1033A8001A43CA61236813F0200F0CD0E269194B45
:1033B8001B6A03F070039A4205D216490B6A23F080
:1033C80070031A430A62FFF7D9FD12498B69C3F3E8
:1033D8000323114AD35C03F01F03D8408B6903F021
:1033E8000F03D35C03F01F0320FA03F30B4A1360A7
:1033F8000B4B18600B4B1868FEF772FD70BD01206F
:1034080070470120FAE70120F8E70120F6E700BF3E
:1034180000200052004402583467000804000024C9
:10342800000000243000002408B5FFF7A7FD0B4A70
:103438009369C3F303230A49CB5C03F01F0320FA03
:1034480003F3926902F00F02885C00F01F0023FA70
:1034580000F0044A1060044A136008BD0044025892
:1034680034670008040000240000002408B5FFF7B2
:10347800DBFF054BDB69C3F30213044AD35C03F09B
:103488001F03D84008BD00BF004402583467000835
:1034980008B5FFF7C9FF054BDB69C3F30223044AEC
:1034A800D35C03F01F03D84008BD00BF0044025896
:1034B80034670008404B9B6A03F00303032B79D061
:1034C80070B505460E463C4A136823F080631360C6
:1034D800FEF768FD0446384B1B6813F0006F06D0F2
:1034E800FEF760FD031B022BF5D9032070BD324B9C
:1034F8009A6A22F47C32296842EA01329A626A683E
:10350800013AC2F30802A9680139490289B20A439B
:10351800E9680139090401F4FE010A4329690139FE
:10352800090601F0FE410A439A63DA6A22F0C002F2
:1035380069690A43DA62DA6A22F02002A9690A4351
:10354800DA62DA6A22F01002DA62D96B1B4A0A40A0
:10355800E96942EAC102DA63DA6A42F01002DA6221
:10356800C6B91A46DB6A43F40023D362124A1368C9
:1035780043F080631360FEF715FD04460E4B1B688D
:1035880013F0006F14D1FEF70DFD001B0228F5D9CA
:103598000320ABE7012E05D0074AD36A43F4001392
:1035A800D362E3E7044AD36A43F48013D362DDE7C6
:1035B80000209BE701207047004402580700FFFFE6
:1035C800404B9B6A03F00303032B79D070B5054683
:1035D8000E463C4A136823F080531360FEF7E2FC62
:1035E8000446384B1B6813F0005F06D0FEF7DAFC80
:1035F800031B022BF5D9032070BD324B9A6A22F0C7
:103608007C72296842EA01529A626A68013AC2F3F6
:103618000802A9680139490289B20A43E9680139EF
:10362800090401F4FE010A4329690139090601F078
:10363800FE410A431A64DA6A22F4406269690A435D
:10364800DA62DA6A22F40072A9690A43DA62DA6A8B
:1036580022F48072DA62596C1B4A0A40E96942EA2C
:10366800C1025A64DA6A42F48072DA62C6B91A464A
:10367800DB6A43F48003D362124A136843F0805331
:103688001360FEF78FFC04460E4B1B6813F0005FB7
:1036980014D1FEF787FC001B0228F5D90320ABE7FD
:1036A800012E05D0074AD36A43F08073D362E3E75B
:1036B800044AD36A43F40003D362DDE700209BE7A2
:1036C80001207047004402580700FFFFF8B5044680
:1036D800036813F0006F30D0436EB3F5001F26D097
:1036E8000ED8EBB1B3F5801F07D102210430FFF7E4
:1036F800E1FE054645B12E4621E0012635461EE08D
:10370800B3F5401F09D10025954A136D23F44013E2
:10371800616E0B431365002611E0012635460EE065
:103728008F4AD36A43F40033D3620025ECE70221C1
:103738002430FFF745FF0546DCE7002635462368B9
:1037480013F4807F14D0636D042B30D8DFE803F0C6
:10375800032228080800824AD36A43F40033D3625C
:1037680045BB7F4A136D23F00703616D0B43136557
:10377800236813F4007F2FD0A36D802B49D01ED867
:10378800002B40D0402B17D10021201DFFF792FEBF
:10379800054619E00021201DFFF78CFE0546DFE7EE
:1037A800002104F12400FFF70BFF0546D8E70126A6
:1037B8003546DDE72E46DBE7012635460CE0C02B13
:1037C80002D0B3F5807F1BD155BB654A136D23F436
:1037D800E073A16D0B431365236813F4806F45D024
:1037E800D4F8A430B3F5800F38D01ED883B3B3F51E
:1037F800001F17D10021201DFFF75CFE05461AE0C7
:1038080001263546E8E7564AD36A43F40033D362C3
:10381800DAE7002104F12400FFF7D2FE0546D3E7DA
:103828002E46D9E70126354620E0B3F5C00F02D071
:10383800B3F5000F09D1C5B9494A936D23F4600364
:10384800D4F8A4100B43936510E0012635460DE02B
:10385800434AD36A43F40033D362ECE7002104F10E
:103868002400FFF7ADFE0546E5E72E46236813F46E
:10387800006F23D0D4F8A830B3F1007F41D00DD821
:10388800002B38D0B3F1807F05D10021201DFFF730
:1038980011FE054608E0012635460FE0B3F1407FEA
:1038A80002D0B3F1806F23D1002D31D12C4A936D12
:1038B80023F0E063D4F8A8100B439365236813F052
:1038C800007F2ED0A36C202B3FD026D833B1102BED
:1038D80020D1234AD36A43F40033D362002D3AD16E
:1038E8001F4AD36C23F03003A16C0B43D36418E058
:1038F80001263546E2E71A4AD36A43F40033D36215
:10390800D2E7002104F12400FFF75AFE0546CBE771
:103918002E46D3E70126354603E0302BDED00126BC
:103928003546236813F4805F2BD0E36DB3F5005F51
:103938004CD017D8002B43D0B3F5805F0DD10021B0
:10394800201DFFF7B7FD054612E00221201DFFF7F5
:10395800B1FD0546C2E72E46E3E70126354610E0ED
:1039680000440258B3F5405F02D0B3F5804F24D12C
:10397800002D32D1754A136D23F4E043E16D0B43FA
:103988001365236813F4005F37D0236EB3F5003F47
:1039980051D027D83BB1B3F5803F20D10121201D5C
:1039A800FFF788FD0546002D4CD1684A136D23F4B6
:1039B800E023216E0B4313651FE001263546E0E73F
:1039C800624AD36A43F40033D362D1E7002104F199
:1039D8002400FFF7F5FD0546CAE72E46D1E7012684
:1039E80035460AE0B3F5802FDDD0B3F5A02FDAD045
:1039F800B3F5403FD7D001263546236813F4804FEE
:103A080030D0D4F8AC30B3F1005F44D01FD83BB10C
:103A1800B3F1805F18D10121201DFFF74BFD05464A
:103A2800002D3FD1494A936D23F0E043D4F8AC1000
:103A38000B43936516E0012104F12400FFF7C0FD54
:103A48000546B0E72E46D8E7012635460AE0B3F129
:103A5800804FE5D0B3F1A04FE2D0B3F1405FDFD0A3
:103A680001263546236813F4004F09D0E36EB3F1FD
:103A7800805F19D0B3F1005F24D0D3B10126354659
:103A8800236813F0807F32D0636C032B59D8DFE8AA
:103A980003F026215226012104F12400FFF790FDAE
:103AA8000546BDE72E46DDE7284AD36A43F40033CE
:103AB800D3626DB9254A136D23F04053E16E0B4371
:103AC8001365DDE70121201DFFF7F4FC0546F0E74B
:103AD8002E46D5E71D4AD36A43F40033D3629DBB13
:103AE8001A4AD36C23F00303616C0B43D364236835
:103AF80013F4800F2CD1236813F0010F00F0A3807A
:103B0800A36F282B00F29D80DFE803F08B9B9B9B23
:103B18009B9B9B9B869B9B9B9B9B9B9B949B9B9B09
:103B28009B9B9B9B8B9B9B9B9B9B9B9B8B9B9B9BFD
:103B38009B9B9B9B8B000221201DFFF7BBFC05462E
:103B4800CDE701263546D2E72E46D0E70044025895
:103B58008F4A136843F480731360FEF723FA07460D
:103B68008B4B1B6813F4807F05D1FEF71BFAC01B33
:103B78006428F5D90325002D4AD1864B1B6FD4F84C
:103B8800B020534013F4407F0CD0824B1A6F22F4BC
:103B98004072196F41F480311967196F21F480312F
:103BA80019671A67D4F8B030B3F5807F15D08DBB8C
:103BB800D4F8B03003F44072B2F5407F1ED0754A95
:103BC800136923F47C53136172490B6FD4F8B02046
:103BD800C2F30B0213430B678DE7FEF7E3F90746C1
:103BE8006C4B1B6F13F0020FE1D1FEF7DBF9C01B22
:103BF80041F288339842F3D90325D8E7654802692A
:103C080022F47C52644901EA131313430361DBE78E
:103C18002E4670E72E466EE70121201DFFF74AFC6D
:103C28000546E5B95B4A536D23F03803A16F0B4392
:103C3800536508E0012104F12400FFF7C1FC0546A3
:103C4800EFE701263546236813F0020F16D0636F9D
:103C5800052B27D8DFE803F00A051F0A0A0A2E46B3
:103C6800F1E70121201DFFF725FC0546EDB9494A7A
:103C7800536D23F00703616F0B435365236813F0FB
:103C8800040F22D0D4F89030052B43D8DFE803F096
:103C9800140F3B141414012104F12400FFF790FCC5
:103CA8000546E3E701263546E8E72E46E6E7012123
:103CB800201DFFF7FFFB05467DBB364A936D23F0B9
:103CC8000703D4F890100B439365236813F0200F73
:103CD80033D0D4F88C30B3F1005F4CD022D83BB14C
:103CE800B3F1805F1BD10021201DFFF7E3FB0546E0
:103CF800002D47D1274A536D23F0E043D4F88C10A8
:103D08000B43536519E0012104F12400FFF758FC27
:103D18000546D1E701263546D7E72E46D5E70126E1
:103D280035460AE0B3F1804FE2D0B3F1A04FDFD0BF
:103D3800B3F1405FDCD001263546236813F0400F0D
:103D480037D0D4F89830B3F5006F52D026D83BB1AD
:103D5800B3F5806F18D10021201DFFF7ABFB054696
:103D6800002D4DD10B4A936D23F4E053D4F89810ED
:103D78000B4393651DE0022104F12400FFF720FCAA
:103D88000546B5E72E46D8E70126354611E000BFBF
:103D98000048025800440258CFFFFF00B3F5805F87
:103DA800DED0B3F5A05FDBD0B3F5406FD8D00126E5
:103DB8003546236813F0800F32D0D4F89C30B3F521
:103DC800804F00F09D8020D83BB1B3F5005F19D13A
:103DD8000021201DFFF76EFB0546002D40F097805F
:103DE800A54A936D23F46043D4F89C100B43936564
:103DF80016E0022104F12400FFF7E2FB0546AFE7D5
:103E08002E46D6E7012635460AE0B3F5004FE4D042
:103E1800B3F5204FE1D0B3F5C04FDED001263546CB
:103E2800236813F0080F0CD0D4F88030B3F5805F06
:103E38006FD0914A536D23F44053D4F880100B434C
:103E48005365236813F0100F0CD0D4F89430B3F5F1
:103E5800807F67D0884A936D23F44073D4F8941018
:103E68000B439365236813F4002F0BD0D4F8A030CC
:103E7800B3F5803F6ED0B3F5003F61D0002B5AD028
:103E880001263546236813F4802F0CD0D4F88430EB
:103E9800B3F5001F76D0B3F5401F69D0B3F5801F86
:103EA80061D001263546236813F4803F07D0E36CC0
:103EB800002B70D0B3F5803F7BD0012635462368B0
:103EC80013F0005F7DD1236813F4003F00F0868073
:103ED800E36FB3F5807F00F0C6807CD9B3F5007F2F
:103EE80003D0B3F5407F40F0BC80002D40F0C18086
:103EF800614A536D23F44073E16F0B4353656DE0E2
:103F0800022104F12400FFF75BFB054665E72E4616
:103F180086E7022104F12400FFF752FB002888D02D
:103F2800012686E7022104F12400FFF749FB002857
:103F380090D001268EE70021201DFFF7BBFA054629
:103F48007DB94D4A936D23F44033D4F8A0100B4348
:103F5800936597E7022104F12400FFF731FB05463A
:103F6800EEE72E468EE7444AD36A43F40033D36221
:103F78007DB9414A536D23F44013D4F884100B43A0
:103F8800536590E7012104F12400FFF719FB05466A
:103F9800EEE72E4687E7384AD36A43F40033D36204
:103FA8006DB9354AD36C23F48033E16C0B43D36489
:103FB80085E70221201DFFF77DFA0546F0E72E462A
:103FC8007DE7022104F12400FFF7FAFA00283FF404
:103FD8007AAF012677E7002B87D00126236813F4F0
:103FE800801F06D0244A136D23F00043216F0B4332
:103FF8001365236813F0805F07D01F4A136923F401
:104008008043D4F8B4100B431361236813F4001FE2
:1040180006D0194A136D23F08073A16E0B43136504
:10402800236813F0804F09D0134B1A6922F4004219
:104038001A611A69D4F8B8100A431A612368002B68
:104048001CDB236813F4000F07D00B4A536D23F4CD
:104058004003D4F888100B43536506B10126304657
:10406800F8BD0126BAE7044AD36A43F40033D362A1
:104078003BE72E46B2E700BF00440258034AD36C20
:1040880023F04053216D0B43D364DAE70044025810
:1040980008B5FFF7C9F9054B1B6AC3F30213044AB5
:1040A800D35C03F01F03D84008BD00BF004402588A
:1040B800346700082DE9F0410446864B9D6A9E6AE4
:1040C800C6F30536D86AC0F30010DB6BC3F3CC0324
:1040D80003FB00F0FCF7B2F9002E00F0F58005F0C4
:1040E80003050746012D79D0022D00F0CB800DB3D2
:1040F8003046FCF7A3F901467748FCF7ABFA0546CA
:10410800744B986BC0F30800FCF798F906464FF01B
:1041180064513846FCF7EAF901463046FCF7DEF808
:104128004FF07E51FCF7DAF801462846FCF7DEF935
:10413800054674E0674B1B6813F0200F2CD0DFF89E
:104148009481D8F80030C3F3C1036448D840FCF721
:1041580075F905463046FCF771F901462846FCF723
:1041680079FA0546D8F83800C0F30800FCF766F974
:1041780006464FF064513846FCF7B8F90146304618
:10418800FCF7ACF84FF07E51FCF7A8F8014628463A
:10419800FCF7ACF9054642E03046FCF74FF901461A
:1041A8004F48FCF757FA05464A4B986BC0F308008E
:1041B800FCF744F906464FF064513846FCF796F987
:1041C80001463046FCF78AF84FF07E51FCF786F836
:1041D80001462846FCF78AF9054620E03046FCF7F8
:1041E8002DF901463C48FCF735FA0546394B986BE2
:1041F800C0F30800FCF722F906464FF06451384630
:10420800FCF774F901463046FCF768F84FF07E5128
:10421800FCF764F801462846FCF768F905462D4E78
:10422800B06BC0F34620FCF709F94FF07E51FCF75C
:1042380055F801462846FCF70DFAFCF743FB2060C9
:10424800B06BC0F30640FCF7F9F84FF07E51FCF76D
:1042580045F801462846FCF7FDF9FCF733FB60609A
:10426800B06BC0F30660FCF7E9F84FF07E51FCF73D
:1042780035F801462846FCF7EDF9FCF723FBA0606A
:10428800BDE8F0813046FCF7D9F801461548FCF73F
:10429800E1F905460F4B986BC0F30800FCF7CEF820
:1042A80006464FF064513846FCF720F9014630467F
:1042B800FCF714F84FF07E51FCF710F80146284639
:1042C800FCF714F90546AAE7002323606360A3609E
:1042D800D6E700BF004402580024744A0090D00377
:1042E8000024744C20BCBE4B2DE9F0410446864B9B
:1042F8009D6A9E6AC6F30556D86AC0F300205B6CB7
:10430800C3F3CC0303FB00F0FCF798F8002E00F091
:10431800F58005F003050746012D79D0022D00F040
:10432800CB800DB33046FCF789F801467748FCF797
:1043380091F90546744B186CC0F30800FCF77EF839
:1043480006464FF064513846FCF7D0F8014630462F
:10435800FBF7C4FF4FF07E51FBF7C0FF014628462C
:10436800FCF7C4F8054674E0674B1B6813F0200F90
:104378002CD0DFF89481D8F80030C3F3C103644827
:10438800D840FCF75BF805463046FCF757F801467D
:104398002846FCF75FF90546D8F84000C0F3080046
:1043A800FCF74CF806464FF064513846FCF79EF887
:1043B80001463046FBF792FF4FF07E51FBF78EFF28
:1043C80001462846FCF792F8054642E03046FCF7DD
:1043D80035F801464F48FCF73DF905464A4B186C3D
:1043E800C0F30800FCF72AF806464FF06451384637
:1043F800FCF77CF801463046FBF770FF4FF07E5122
:10440800FBF76CFF01462846FCF770F8054620E0EC
:104418003046FCF713F801463C48FCF71BF9054603
:10442800394B186CC0F30800FCF708F806464FF043
:1044380064513846FCF75AF801463046FBF74EFF00
:104448004FF07E51FBF74AFF01462846FCF74EF82D
:1044580005462D4E306CC0F34620FBF7EFFF4FF0BA
:104468007E51FBF73BFF01462846FCF7F3F8FCF7C3
:1044780029FA2060306CC0F30640FBF7DFFF4FF0ED
:104488007E51FBF72BFF01462846FCF7E3F8FCF7C3
:1044980019FA6060306CC0F30660FBF7CFFF4FF08D
:1044A8007E51FBF71BFF01462846FCF7D3F8FCF7C3
:1044B80009FAA060BDE8F0813046FBF7BFFF01466E
:1044C8001548FCF7C7F805460F4B186CC0F30800F1
:1044D800FBF7B4FF06464FF064513846FCF706F880
:1044E80001463046FBF7FAFE4FF07E51FBF7F6FE29
:1044F80001462846FBF7FAFF0546AAE70023236092
:104508006360A360D6E700BF004402580024744AE1
:104518000090D0030024744C20BCBE4BF0B4036A56
:1045280023F001030362036A466884691F4A224034
:104538000D68154323F002038C6823431C4A1D4C65
:10454800A04218BF90420CBF012200220CD004F5F3
:104558008044A04214BF00240124174FB84203D05E
:1045680014B9164CA04205D123F00803CC682343A4
:1045780023F004035AB9124A904214BF00220122C0
:104588000D4CA04203D012B90C4A904207D126F430
:10459800407C4A6942EA0C0C8E6946EA0C06466081
:1045A80085614A6842630362F0BC70478CFFFEFF76
:1045B8000000014000040140004001400048014063
:1045C8000044014070B4036A23F480730362036AF1
:1045D8004568C4691A4A22400E68164323F40073DA
:1045E8008A6843EA0223174A174CA04218BF904230
:1045F8000CBF0122002206D123F40063CC6843EAF1
:10460800042323F480635AB9104A904214BF00224D
:1046180001220F4CA04203D012B90E4A904207D192
:1046280025F4405C4A694CEA021C8D694CEA051580
:104638004560C6614A68C263036270BC704700BFC8
:104648008CFFFEFF000001400004014000440140CF
:10465800004001400048014070B4036A23F48053CD
:104668000362036A4468C569144A2A400D6842EA2D
:10467800052223F400538D6843EA0533104E114D8B
:10468800A84218BFB0420DD005F58045A84214BF16
:104698000025012506F58046B04203D015B90A4D1C
:1046A800A84204D124F480444D6944EA8514446046
:1046B800C2614A680264036270BC7047FF8CFFFEE7
:1046C80000000140000401400048014070B4036A42
:1046D80023F480330362036A4268456D144C2C400E
:1046E8000D682C4323F400338D6843EA0543114ECB
:1046F800114DA84218BFB0420DD005F58045A8421B
:1047080014BF0025012506F58046B04203D015B92F
:104718000A4DA84204D122F480324D6942EA0522AA
:10472800426044654A688265036270BC704700BF96
:104738008FFFFEFF000001400004014000480140D7
:1047480070B4036A23F480130362036A4468456DF6
:10475800144A2A400D6842EA052223F400138D68A2
:1047680043EA0553104E114DA84218BFB0420DD070
:1047780005F58045A84214BF0025012506F58046A9
:10478800B04203D015B90A4DA84204D124F48024BC
:104798004D6944EA8524446042654A68C2650362FB
:1047A80070BC7047FF8FFFFE00000140000401400D
:1047B8000048014090F83D30DBB2012B3AD102238A
:1047C80080F83D300268D36843F00103D360036882
:1047D8001A4AB3F1804F18BF93421DD0A2F57C420C
:1047E800934219D002F58062934215D002F5806297
:1047F800934211D002F5784293420DD0A2F56C4253
:10480800934209D002F59432934205D01A6842F0D7
:1048180001021A60002070479968094A0A40062A6E
:1048280018BFB2F5803F07D01A6842F001021A603B
:1048380000207047012070470020704700000140A9
:1048480007000100704770477047704710B504466D
:1048580003681A6912F0020F11D0DA6812F0020F19
:104868000DD06FF002021A610123037703689B6978
:1048780013F0030F79D0FFF7E6FF002323772368AF
:104888001A6912F0040F12D0DA6812F0040F0ED071
:104898006FF004021A610223237723689B6913F4DB
:1048A800407F68D02046FFF7CEFF00232377236898
:1048B8001A6912F0080F12D0DA6812F0080F0ED039
:1048C8006FF008021A61042323772368DB6913F069
:1048D800030F57D02046FFF7B6FF0023237723683E
:1048E8001A6912F0100F12D0DA6812F0100F0ED0F9
:1048F8006FF010021A61082323772368DB6913F429
:10490800407F46D02046FFF79EFF00232377236889
:104918001A6912F0010F03D0DA6812F0010F3FD1C3
:1049280023681A6912F0800F03D0DA6812F0800F3A
:104938003DD123681A6912F4807F03D0DA6812F037
:10494800800F3BD123681A6912F0400F03D0DA6850
:1049580012F0400F39D123681A6912F0200F03D0E2
:10496800DA6812F0200F37D110BDFFF76BFF204631
:10497800FFF76AFF81E72046FFF764FF2046FFF74D
:1049880063FF92E72046FFF75DFF2046FFF75CFFD5
:10499800A3E72046FFF756FF2046FFF755FFB4E789
:1049A8006FF001021A612046FDF774FAB8E76FF05C
:1049B80080021A61204600F0B6FBBAE76FF48072F5
:1049C8001A61204600F0B0FBBCE76FF040021A61A4
:1049D8002046FFF73AFFBEE76FF020021A61204633
:1049E80000F0A0FBC0E7000030B50368394A9042E8
:1049F80014BF4FF0000E4FF0010EB0F1804F14BFFE
:104A080072464EF00102AAB9334CA04214BF0024EA
:104A18000124324DA8420DD064B904F1804404F554
:104A28008234A04214BF0024012405F50065A84281
:104A380000D01CB123F070034C68234312BB264AF4
:104A4800904214BF00220122244CA0421AD0CAB9B5
:104A580002F1804202F58232904214BF0022012204
:104A680004F50064A0420DD062B91D4A904214BFFB
:104A78000022012204F59A34A04203D012B9194A3F
:104A8800904204D123F4407CCB6843EA0C0323F022
:104A980080034A69134303608A68C2620A688262B3
:104AA800114A904214BF73464EF0010363B90C4B90
:104AB800984214BF0023012302F57052904203D09C
:104AC80013B9084B984201D10B6903630123436171
:104AD80030BD00BF00000140000800400004004055
:104AE80000440140004801400004014060B310B593
:104AF800044690F83D3013B3022384F83D30214634
:104B080051F8040BFFF770FF012384F8483084F84C
:104B18003E3084F83F3084F8403084F8413084F8DF
:104B2800423084F8433084F8443084F8453084F8BF
:104B3800463084F8473084F83D30002010BD80F8B6
:104B48003C30FCF707FCD7E70120704760B310B58D
:104B5800044690F83D3013B3022384F83D302146D3
:104B680051F8040BFFF740FF012384F8483084F81C
:104B78003E3084F83F3084F8403084F8413084F87F
:104B8800423084F8433084F8443084F8453084F85F
:104B9800463084F8473084F83D30002010BD80F856
:104BA8003C30FCF7BDFBD7E701207047002852D006
:104BB80070B50D46044690F83D30002B46D00223D0
:104BC80084F83D3022689168244B0B40936021465D
:104BD80051F8040BFFF708FF206881688369026AAF
:104BE8002E680E431E491940AB68D5F818C043EA31
:104BF8000C2343EA010C1B4B0CEA0303E968D5F8C4
:104C08001CC041EA0C2119432B6A1B03D5F810C0BC
:104C180043EA0C130B4322F0AA016A686D6942EA61
:104C280005120A43866021688B6123681A62012392
:104C380084F8483084F83E3084F83F3084F84430B3
:104C480084F8453084F83D30002070BD80F83C3051
:104C5800FCF7B0FAB3E70120704700BFF8BFFEFFCA
:104C6800FCFCFFFF0303FFFF70B4036A23F010038B
:104C78000362036A456884691A4A22400E6842EA58
:104C8800062623F020038A6843EA0213164A174CC3
:104C9800A04218BF90420CBF0122002206D123F087
:104CA8008003CC6843EA041323F040035AB9104A3E
:104CB800904214BF002201220E4CA04203D012B928
:104CC8000D4A904207D125F4406C4A694CEA820C9F
:104CD8008D694CEA8505456086614A68826303628E
:104CE80070BC7047FF8CFFFE0000014000040140CB
:104CF80000440140004001400048014038B590F8A8
:104D08003C30012B00F0958004460D46012380F8C5
:104D18003C30142A00F28880DFE802F00B86868691
:104D28001F86868634868686488686865D8686863B
:104D380071000068FFF7F2FB2268936943F00803EB
:104D480093612268936923F004039361226893694D
:104D580029690B439361002067E00068FFF784FF2F
:104D68002268936943F4006393612268936923F48A
:104D78008063936122689369296943EA01239361F7
:104D8800002052E00068FFF71DFC2268D36943F059
:104D98000803D3612268D36923F00403D36122682E
:104DA800D36929690B43D36100203EE00068FFF70F
:104DB80053FC2268D36943F40063D3612268D36942
:104DC80023F48063D3612268D369296943EA012304
:104DD800D361002029E00068FFF778FC2268536D52
:104DE80043F0080353652268536D23F004035365A9
:104DF8002268536D29690B435365002015E000684C
:104E0800FFF79EFC2268536D43F4006353652268E4
:104E1800536D23F4806353652268536D296943EA0F
:104E280001235365002000E00120002384F83C3072
:104E380038BD0220FCE701F01F01012303FA01FC41
:104E4800036A23EA0C030362036A02FA01F10B43C3
:104E58000362704710B50446084600294ED194F8FD
:104E68003E30DBB2013B18BF0123002B40F09B8092
:104E780000286ED1022384F83E30012201462068C2
:104E8800FFF7D9FF23684A494A4A934218BF8B4221
:104E98000BD002F57052934207D002F5806293421C
:104EA80003D002F58062934203D15A6C42F4004267
:104EB8005A6423683E4AB3F1804F18BF934264D0C6
:104EC800A2F57C42934260D002F5806293425CD0A6
:104ED80002F58062934258D002F57842934254D04A
:104EE800A2F56C42934250D002F5943293424CD0D2
:104EF8001A6842F001021A60002055E004290CD01B
:104F0800082911D00C2916D010291BD094F8433049
:104F1800DBB2013B18BF0123A7E794F83F30DBB2AF
:104F2800013B18BF0123A0E794F84030DBB2013BF6
:104F380018BF012399E794F84130DBB2013B18BF51
:104F4800012392E794F84230DBB2013B18BF0123FA
:104F58008BE7042809D008280BD00C280DD010287E
:104F68000FD0022384F8433087E7022384F83F30C8
:104F780083E7022384F840307FE7022384F8413036
:104F88007BE7022384F8423077E799680A4A0A40A7
:104F9800062A18BFB2F5803F07D01A6842F001020E
:104FA8001A60002000E0012010BD0020FCE700BFCF
:104FB80000000140000401400700010038B5044624
:104FC80090F83E30DBB290F83F205FFA82FC90F810
:104FD8004420D0B294F845200D46B1B9012808BF45
:104FE800012B47D1022384F83E3084F844307DB346
:104FF800042D39D0012200212068FFF71CFF01226F
:1050080004212068FFF717FF27E0D2B2042914D043
:10501800BCF1010F08BF012B30D1013A18BF0122A2
:1050280001282DD162BB022384F83E3084F83F303A
:1050380084F8443084F84530D9E7012A08BFBCF128
:10504800010F19D1022384F83F3084F84530CEE7A8
:10505800012200212068FFF7EEFE2268136843F062
:1050680001031360002038BD012204212068FFF7E6
:10507800E2FEF2E70120F6E70120F4E70120F2E77B
:105088000120F0E790F83C30012B45D070B40123A3
:1050980080F83C30022380F83D3003685A689C68E9
:1050A8001E4E1F4DAB4218BFB34203D122F470020B
:1050B8004D682A4322F070020D682A435A6003683B
:1050C800164AB3F1804F18BF934217D0A2F57C421D
:1050D800934213D002F5806293420FD002F58062AA
:1050E80093420BD002F57842934207D0A2F56C4266
:1050F800934203D002F59432934204D124F0800401
:105108008A6814439C60012380F83D30002380F8AE
:105118003C30184670BC70470220704700000140C0
:10512800000401407047704770470000026852E869
:10513800003F23F4907342E800310029F6D1026859
:1051480002F1080353E8001F0D4B0B40083242E8F8
:1051580000310029F3D1C36E012B06D02023C0F8FB
:1051680088300023C36603677047026852E8003F2F
:1051780023F0100342E800310029F6D1EEE700BF22
:10518800FEFFFFEF704708B5026852E8003F23F0C2
:10519800400342E800310029F6D12023C0F88430CA
:1051A80000234367FFF7EEFF08BD704708B5806B23
:1051B8000023A0F85E30A0F85630FFF7F6FF08BDD0
:1051C8007047000070B504460168CB6908688D68AF
:1051D80040F60F021A4008D113F0200F05D010F046
:1051E800200F34D115F0805F31D12AB1894A2A4085
:1051F80033D1894E304230D1E26E012A00F0C380AB
:1052080013F4801F03D015F4800F40F0928113F03F
:10521800800F07D010F0800F40F0928115F4000F36
:1052280040F08E8113F0400F03D010F0400F40F093
:105238008E8113F4000F03D010F0804F40F08B8163
:1052480013F0807F02D00028C0F2898170BD236FDF
:10525800002BFBD020469847F8E713F0010F09D040
:1052680010F4807F06D001260E62D4F88C103143EA
:10527800C4F88C1013F0020F0BD015F0010F08D0F2
:10528800216802260E62D4F88C1041F00401C4F89B
:105298008C1013F0040F0BD015F0010F08D0216803
:1052A80004260E62D4F88C1041F00201C4F88C1068
:1052B80013F0080F0BD010F0200F00D13AB122687C
:1052C80008211162D4F88C200A43C4F88C2013F406
:1052D800006F0CD010F0806F09D022684FF4006185
:1052E8001162D4F88C2042F02002C4F88C20D4F843
:1052F8008C20002AAAD013F0200F09D010F0200F1C
:1053080002D115F0805F03D0236F0BB12046984778
:10531800D4F88C2023689B6813F0400F02D112F058
:10532800280F29D02046FFF701FF23689B6813F058
:10533800400F1DD0226802F1080353E8003F23F014
:105348004003083242E800310029F3D1E36F5BB132
:10535800324A1A65E06FFDF74BF800283FF476AF44
:10536800E06F036D984771E72046FFF71EFF6DE772
:105378002046FFF71AFF69E72046FFF716FF0023CC
:10538800C4F88C3062E713F0100F3FF439AF10F017
:10539800100F3FF435AF10230B6223689B6813F09E
:1053A800400F00F08E80E26F13681D481D498B4244
:1053B80018BF834238D018318B4235D018318B4210
:1053C80032D018318B422FD018318B422CD0183163
:1053D8008B4229D018318B4226D001F556718B4269
:1053E80022D018318B421FD018318B421CD0183173
:1053F8008B4219D018318B4216D018318B4213D0FA
:1054080018318B4210D018318B420DD05B689BB29B
:105418000CE000BF0100001020010004B551000895
:1054280010000240280002405B689BB2002B3FF44A
:105438000DAFB4F85C1099427FF608AFA4F85E305F
:10544800D369B3F5807F31D0226852E8003F23F456
:10545800807342E800310029F6D1226802F108037E
:1054680053E8003F23F00103083242E800310029E5
:10547800F3D1226802F1080353E8003F23F0400308
:10548800083242E800310029F3D12023C4F88830DB
:105498000023E366226852E8003F23F0100342E845
:1054A80000310029F6D1E06FFCF702FEB4F85C1079
:1054B800B4F85E309BB2C91A89B22046FFF780FE65
:1054C800C4E6B4F85C10B4F85E309BB2C91A89B26D
:1054D800B4F85E309BB2002B3FF4B8AE00293FF41D
:1054E800B5AE226852E8003F23F4907342E80030DA
:1054F8000028F6D1226802F1080353E8000F1A4B7E
:105508000340083242E800300028F3D12023C4F8D1
:1055180088300023E3662367226852E8003F23F0BF
:10552800100342E800300028F6D12046FFF748FE75
:105538008CE64FF480130B62204600F099FF85E655
:10554800636F002B3FF482AE204698477EE62046E4
:10555800FFF719FE7AE6204600F08CFF76E6204633
:1055680000F087FF72E600BFFEFFFFEF08B5B0F856
:105578006030D0F88820222A05D00268936943F069
:105588000803936108BD0268516ADBB2826D0B4063
:105598001370836D01338365B0F85E309BB2013BB5
:1055A8009BB2A0F85E30B0F85E309BB2002BE9D118
:1055B800026852E8003F23F4907342E80031002962
:1055C800F6D1026802F1080353E8003F23F0010313
:1055D800083242E800310029F3D12023C0F888308E
:1055E80000230367C36E012B16D10023C36602682C
:1055F80052E8003F23F0100342E800310029F6D1B9
:105608000368DA6912F0100F01D010221A62B0F89C
:105618005C10FFF7D5FDB5E7FBF774FCB2E708B5FA
:10562800B0F86020D0F88830222B05D00268936942
:1056380043F00803936108BD03685B6A816D1340FA
:105648000B80836D02338365B0F85E309BB2013BFB
:105658009BB2A0F85E30B0F85E309BB2002BEAD166
:10566800026852E8003F23F4907342E800310029B1
:10567800F6D1026802F1080353E8003F23F0010362
:10568800083242E800310029F3D12023C0F88830DD
:1056980000230367C36E012B16D10023C36602687B
:1056A80052E8003F23F0100342E800310029F6D108
:1056B8000368DA6912F0100F01D010221A62B0F8EC
:1056C8005C10FFF77DFDB6E7FBF71CFCB3E70000B5
:1056D8002DE9F843B0F860600368DD69D3F80090FD
:1056E800D3F80880D0F88820222A05D09A6942F099
:1056F80008029A61BDE8F8830446B0F8687008E0CB
:10570800D4F88C30002B4CD1B4F85E309BB2002B0F
:105718004ED0002F00F0858015F0200F00F081801A
:105728002368596AF3B2A26D0B401370A36D01335D
:10573800A365B4F85E309BB2013B9BB2A4F85E301F
:105748002368DD6915F0070FDED015F0010F09D0C9
:1057580019F4807F06D001221A62D4F88C301343E2
:10576800C4F88C3015F0020F0BD018F0010F08D0D8
:10577800236802221A62D4F88C3043F00403C4F878
:105788008C3015F0040FBBD018F0010FB8D0236887
:1057980004221A62D4F88C3043F00203C4F88C3027
:1057A800AEE72046FFF701FD0023C4F88C30ABE7D5
:1057B800226852E8003F23F4807342E80031002950
:1057C800F6D1226802F1080353E8001F264B0B406C
:1057D800083242E800310029F3D12023C4F8883088
:1057E80000232367E36E012B03D02046FBF78AFBD7
:1057F8008FE70023E366226852E8003F23F0100396
:1058080042E800310029F6D12368DA6912F0100F56
:1058180001D010221A62B4F85C102046FFF7D0FCC1
:1058280077E7B4F85E309BB2002B3FF463AFB4F86F
:1058380068209A427FF65EAF226802F1080353E8B7
:10584800003F23F08053083242E800310029F3D1A9
:10585800064B2367226852E8003F43F0200342E8E2
:1058680000310029F6D145E7FEFFFFEF7555000826
:105878002DE9F843B0F860600368DD69D3F800905B
:10588800D3F80880D0F88820222A05D09A6942F0F7
:1058980008029A61BDE8F8830446B0F8687008E029
:1058A800D4F88C30002B4AD1B4F85E309BB2002B70
:1058B8004CD0002F00F0838015F0200F7FD0236894
:1058C8005B6AA26D33401380A36D0233A365B4F8FD
:1058D8005E309BB2013B9BB2A4F85E302368DD6961
:1058E80015F0070FE0D015F0010F09D019F4807FEB
:1058F80006D001221A62D4F88C301343C4F88C30D5
:1059080015F0020F0BD018F0010F08D023680222FF
:105918001A62D4F88C3043F00403C4F88C3015F0C4
:10592800040FBDD018F0010FBAD0236804221A6200
:10593800D4F88C3043F00203C4F88C30B0E720462A
:10594800FFF733FC0023C4F88C30ADE7226852E837
:10595800003F23F4807342E800310029F6D1226821
:1059680002F1080353E8001F264B0B40083242E8B7
:1059780000310029F3D12023C4F88830002323679D
:10598800E36E012B03D02046FBF7BCFA91E7002316
:10599800E366226852E8003F23F0100342E8003132
:1059A8000029F6D12368DA6912F0100F01D010220D
:1059B8001A62B4F85C102046FFF702FC79E7B4F8E5
:1059C8005E309BB2002B3FF465AFB4F868209A4272
:1059D8007FF660AF226802F1080353E8003F23F026
:1059E8008053083242E800310029F3D1064B23677F
:1059F800226852E8003F43F0200342E800310029C2
:105A0800F6D147E7FEFFFFEF2756000870B586B0CE
:105A18000446016883680269134342691343C269F3
:105A280013430868884A024013430B60226853688E
:105A380023F44053E1680B435360A1692268834B08
:105A48009A4201D0236A19439068814B03400B4363
:105A580093602268D36A23F00F03616A0B43D36211
:105A680022687C4B9A4221D07B4B9A4200F08C8072
:105A78007A4B9A4200F0A280794B9A4200F0B580A6
:105A8800784B9A4200F0C880774B9A4200F0F48035
:105A9800764B9A4200F01981754B9A4200F02C819E
:105AA8006A4B9A4200F03F81802333E0714B5B6D73
:105AB80003F03803282B65D8DFE813F029006400C9
:105AC8006400640064006400640064004D016400C4
